:020000040800F2
:10000000285400203901000827390008DF3700088C
:1000100025390008510E0008457100080000000055
:100020000000000000000000000000007947000808
:10003000CB0E000800000000493900087D68000868
:1000400047710008530100085301000853010008DC
:100050005301000853010008C9140008E514000802
:10006000F91400080D150008530100085301000899
:100070005301000853010008530100085301000810
:100080005301000853010008530100085301000800
:10009000530100085301000853010008211500080E
:1000A00053010008530100085301000853010008E0
:1000B0006969000853010008530100085301000852
:1000C00053010008530100085301000853010008C0
:1000D000530100085301000849700008530100084B
:1000E000DD14000853010008530100085301000803
:1000F00053010008000000005301000853010008EC
:10010000256B000853010008530100085301000843
:10011000950E00085301000853010008000000007C
:1001200053010008DFF80CD000F078FD00480047CC
:10013000F5A80008285400200648804706480047D4
:10014000FEE7FEE7FEE7FEE7FEE7FEE7FEE7FEE787
:10015000FEE7FEE719690008250100082DE9F05FB8
:100160000546002092469B46884606468146402426
:100170001BE0284641464746224600F0DEFB534638
:100180005A46C01A914110D311461846224600F033
:10019000C5FB2D1A67EB01084F46224601200021BE
:1001A00000F0BCFB17EB00094E41201EA4F1010436
:1001B000DFDC484631462A464346BDE8F09F000052
:1001C00000487047B01501080649074A08685043BF
:1001D00043F2390210440860400870470149086042
:1001E00070470000040400206D4EC64110B5431A4C
:1001F000934209D28318881803E010F8011D03F810
:10020000011D521EF9D210BD40EA01039B0703D025
:1002100009E008C9121F08C0042AFAD203E011F845
:10022000013B00F8013B521EF9D210BDD2B201E0F1
:1002300000F8012B491EFBD270470022F6E710B5EB
:1002400013460A4604461946FFF7F0FF204610BD44
:1002500030B505462A460B4612F8010B13F8014B40
:1002600008B1A042F8D01CB1002802D06D1CF1E703
:10027000284630BD421C10F8011B0029FBD1801A12
:10028000704710B5002200E0521C835C8C5CA342D6
:1002900001D1002BF8D1D8B2E1B2401A10BD30B56F
:1002A00004460020034600E05B1C934203D2E05C5E
:1002B000CD5C401BF8D030BD034611F8012B00F88F
:1002C000012B002AF9D118467047000070B50F4D78
:1002D00000B92868002412E00A4602E09E4203D0DA
:1002E000521C1378002BF9D1DAB2224305D02BB17E
:1002F00024B1002100F8011B04E00446401C0678EC
:10030000002EE9D12860204670BD000008040020BE
:1003100070B5064607F072FB046805460A22002104
:10032000304600F03AFB2C6070BDF0B480EA010268
:10033000D40F4200B2EB410F02D2024608461146EA
:100340004A0042D0C30DDDB2C1F3C752AD1A202D11
:1003500035DAC1F3160141F4000204B15242C5F18D
:10036000200602FA06F12A411044B3EBD05F23D0F5
:10037000C4B1012DA0EBC35009DCF0BC4FF000422A
:1003800002EAC352DBB200F5000000F047BB4000B8
:1003900000F1807000EBC350A0F1807040EAD17092
:1003A000490009E0490841EAC071A0EBC35000F5DB
:1003B0000000400800EBC350F0BC00F026BB6142D7
:1003C000012202EB4101001BF6E7F0BC704781F00F
:1003D0000041AAE780F00040A7E780EA010210B5DB
:1003E00002F00043400022D04A001FD0010E01EB72
:1003F0001261C0F35600C2F3560240F4000042F40A
:100400000002A0FB022000047F39140400D0401C2D
:1004100050EA124001D44000491EC2B20C0604EB5F
:10042000D010401C4008802A02D003E0002010BDFC
:1004300020F00100002900DA0020184310BD30B47C
:1004400080EA010202F0004530F0004221F0004055
:1004500013D090B1C30DD40DC2F31601C0F3160032
:10046000E41A41F4000140F400027D34914201D3CA
:10047000641C00E04900002C02DA30BC0020704708
:100480004FF400000023914201D3891A034340082E
:100490004FEA4101F7D151B1914202D14FF00041F1
:1004A00005E002D24FF0010101E06FF0010103EB22
:1004B000C450284430BC00F0A8BA420005D0C0F3B4
:1004C000C7525242914201DC0020704700EBC150FC
:1004D00070472DE9FE4F804681EA0300C00F0C46AD
:1004E000009021F0004123F00045B8EB0200A94143
:1004F00005D24046214690461C460B46024623F054
:100500000040104347D0270DC7F30A00C3F30A5138
:100510000290401A019040286BDAC3F3130040F4B4
:10052000801B0098924620B10023D2EB030A63EBB4
:100530000B0B01985946C0F14002504600F0EEF90D
:1005400006460D4650465946019A00F006FA10EB51
:1005500008006141002487EA115284EAE7731A43D4
:1005600040D0009A62B3019A012A4FEA075215DC83
:10057000001B61EB02014FF0004202EA0752CDE995
:100580000042001C41F5801132462B4600F083FAF0
:1005900003B0BDE8F08F40462146F9E7001B61EB50
:1005A0000201001C41F5801300185B412018A2F5E0
:1005B000001747EB030140EAD570B6196D4111E011
:1005C0006D084FEA360645EAC0754FEA0752001B30
:1005D00061EB0201001C41F5801149084FEA30002F
:1005E0000019514132462B4603B0BDE8F04F00F0F0
:1005F00043BA0098012240000023D0EB020263EBD3
:10060000E073009821464FEAE074B8EB000061EB1C
:100610000401E9E783F000435BE781F0004158E71C
:100620002DE9FE4F81EA030404F0004421F000416B
:1006300000944FF0000B23F0004350EA01045ED019
:1006400052EA03045BD0C3F30A54C1F30A552C44A5
:10065000A4F2F3340194A0FB0254C1F3130141F45A
:100660008011C3F3130343F4801301FB024400FB26
:10067000034E840A970A44EA815447EA8357A4FB4D
:10068000076802958D0A05FB07854FEA932C04FB4A
:100690000C542705029D4FEA065847EA1637B5EB7A
:1006A00008056EEB070C870E920E47EA811742EAA7
:1006B0008312A7FB0201B6EB0B0164EB00042B0DC8
:1006C00043EA0C335E1844EB1C50DA465146E7FB14
:1006D0000201C5F313044FEA0B3343EA14534FEA04
:1006E0000432019C43EA0603A4F10C040294009C2A
:1006F000CDE900B400F0CFF903B0BDE8F08F0020E1
:100700000146F9E72DE9F04D81EA030404F0004BBE
:1007100021F0004514464FF0000A23F0004150EA52
:10072000050220D054EA01021DD0C5F30A57024643
:10073000C5F31303C1F31300C1F30A5640F4801547
:1007400043F48013A7EB0608101BD64608F2FD38C9
:1007500073EB050002D308F1010801E092185B4138
:10076000B8F1000F03DA00200146BDE8F08D00204B
:100770004FF48011064684460EE0171B73EB050705
:1007800005D3121B63EB050306434CEA010C490831
:100790004FEA300092185B4150EA0107EDD152EA6E
:1007A000030012D082EA040083EA0501084305D061
:1007B000101BAB4106D20122002306E000224FF0BD
:1007C000004302E06FF0010253101AEB06004CEBFD
:1007D000085110EB0A0041EB0B01BDE8F04D00F0B1
:1007E0004BB970B521F0004303430CD0C1F30A5557
:1007F0000024D5EB040564EB0403D617AD1AB3410E
:1008000002DB0020014670BD201841EB025170BD93
:10081000C10F80EAE0700844CA079623002100F067
:10082000FDB896230022114600F0F8B80EB5C10FAE
:1008300080EAE0700844CA07002140F233438DE8A3
:100840000E000A460B4600F026F903B000BD0EB5B7
:1008500040F2334102910021CDE900110A460B46D6
:1008600000F019F903B000BD00F0004220F0004094
:10087000C10DC0F3160040F400007F2901DA00200A
:100880007047962903DCC1F19601C84001E0963912
:100890008840002AF4D04042704720F00040C10D4B
:1008A000C0F3160040F400007F2901DA00207047F1
:1008B000962903DCC1F19601C840704796398840FB
:1008C0007047C1F30A5210B5C1F3130140F2FF3370
:1008D00041F480119A4201DA002010BD40F2334306
:1008E0009A42A2F2334203DC524200F026F810BDD5
:1008F000904010BD002801DBC0F10040002901DB61
:10090000C1F1004181427047002801DBC0F1004085
:10091000002901DBC1F1004188427047202A04DB35
:10092000203A00FA02F1002070479140C2F1200302
:1009300020FA03F3194390407047202A04DB203A41
:1009400021FA02F00021704721FA02F3D040C2F1EF
:1009500020029140084319467047202A06DBCB1736
:10096000203A41FA02F043EAE07306E041FA02F36A
:10097000D040C2F1200291400843194670473A28FE
:1009800000D2303820F02002412A01D3A2F13700F2
:10099000884201D34FF0FF3070472DE9F047914670
:1009A0000F4680460446002614F8015B2DB1FFF780
:1009B00007FC0068405DC007F6D12B2D02D02D2D1D
:1009C00018D0641E4A463946204600F039F927B14E
:1009D0003968A14201D1C7F8008071054FF00204C7
:1009E0000BD54042002803DD07F008F80460A0079B
:1009F000BDE8F08746F48066E4E70028F8DA06F000
:100A0000FDFF04606FF00040F2E70029A8BF7047C7
:100A1000401C490008BF20F00100704710B4B0FA34
:100A200080FC00FA0CF050EA010404BF10BC7047CF
:100A300049B1CCF1200421FA04F411FA0CF118BFE9
:100A4000012121430843A3EB0C01CB1D4FEA0061B8
:100A50004FEA102042BF002010BC704700EBC3508B
:100A600010440029A4BF10BC7047401C490008BFB7
:100A700020F0010010BC704710B5141E73F1000483
:100A800008DA401C41F1000192185B411A4301D180
:100A900020F0010010BD2DE9F04D92469B4611B1AA
:100AA000B1FA81F202E0B0FA80F220329046FFF70C
:100AB00035FF04460F4640EA0A0041EA0B0153465F
:100AC0005A46084313D0114653EA010019D0C8F121
:100AD00040025046FFF731FF05460E465046594644
:100AE0004246FFF71BFF084305D0012004E02046E3
:100AF0003946BDE8F08D0020054346EAE0762C43F8
:100B000037430A986305E40AA0EB08000022FD0AB7
:100B100044EA47540A3002D500200146E9E70105BE
:100B200010196941DDE9084500196941BDE8F04D3A
:100B3000A2E700002DE9F041054621F000400C46F7
:100B4000284309D0C4F30A5040F23341884205DDFE
:100B500028462146BDE8F0812846FBE740F2FE31F9
:100B6000884210DC0CDB4FEA043040EA155050EAB2
:100B7000053105D0104804F0004101430020E9E7A9
:100B800000200146E6E7A0F233404642C6F14002AB
:100B900028462146FFF7C2FE0746884628462146DA
:100BA0003246FFF7CAFE43463A46FFF765FF324634
:100BB000BDE8F041FFF7B2BE0000F03F30B5041EC3
:100BC00071F1000404DB4FF00044404264EB01018A
:100BD000141E73F1000405DB1C464FF00043524223
:100BE00063EB04038B4208BF824230BD30B5041E64
:100BF00071F1000404DB4FF00044404264EB01015A
:100C0000141E73F1000405DB1C464FF000435242F2
:100C100063EB0403994208BF904230BD064C074D78
:100C200006E0E06840F0010394E8070098471034BC
:100C3000AC42F6D3FFF77AFA80180108A018010831
:100C40002DE9F05F82460078002715468B460AF1B1
:100C50000104B946302801D09DB113E014F8010B0E
:100C60000127782803D0582801D045B10AE00DB1FA
:100C7000102D07D10027102514F8010B02E00825DC
:100C800000E00A250026B0460EE005FB080005FB43
:100C900006F1012701EB10461FFA80F8B6F5803FF8
:100CA00000D3B94614F8010B2946FFF768FE002867
:100CB000EBDABBF1000F05D00FB1641E00E0544623
:100CC000CBF80040B9F1000F06D006F097FE0221E4
:100CD0000160C81EBDE8F09F48EA0640FAE770B51B
:100CE0008C1810F8015B15F0070301D110F8013BD7
:100CF0002A1106D110F8012B03E010F8016B01F85E
:100D0000016B5B1EF9D12B0705D40023521E0DD4B5
:100D100001F8013BFAE710F8013BCB1A921C03E003
:100D200013F8015B01F8015B521EF9D5A142D8D33B
:100D3000002070BD70B586B0040008D1104801686D
:100D400041F001010160006800F0010005900D4EC6
:100D50000D4D694636F814000090012001900020E6
:100D600002900220039055F8240000F021FE36F88E
:100D7000141055F82400002200F0FBFE06B070BDF0
:100D80001C3802405E130108140000200449054A83
:100D900031F8101052F82000012200F0EABE0000E5
:100DA0005E130108140000200349044A31F81010B2
:100DB00052F8200000F0D9BE5E1301081400002094
:100DC0000349044A31F8101052F8200000F0C8BE60
:100DD000601301081800002030B587B0040008D166
:100DE0001748026842F004020260006800F0040044
:100DF0000590144830F81400009000200122CDE93D
:100E00000202114AA1B1012910D11048019052F8F3
:100E10002400694600F0CCFD0A4D00222D1F0F2151
:100E2000285700F017FF285700F009FF07B030BD22
:100E3000019052F82400694600F0BAFDF6E7000080
:100E40001C38024060130108180000200000211027
:100E5000FEE700000D4810B50168491C01600068FC
:100E60004FF47A71B0FBF1F201FB120028B9084887
:100E70000168491C016008F0A7FB08F0B1FB0028DD
:100E800003D0BDE8104008F0B3BB10BD98030020AC
:100E900094030020014800F011BC0000400600202F
:100EA00030B590F840500124AC40C56B6C600468CC
:100EB00063604368102B036803D099600068C260C8
:100EC00030BD9A600068C16030BD704710B5002128
:100ED000084610F071F900200BF06CFC0149087015
:100EE00010BD00004410002070B5ADF5207D1EA19E
:100EF0001E48FFF7ADF92022694609F08BFB68B167
:100F00001BA109F0A6FB10B1017C012908D01AA091
:100F100006F050FD01200DF5207D70BD22A0F7E701
:100F200084681CE0207CC8B924A1204609F0A2FBFB
:100F3000050003D0014624A006F03CFD26A1204672
:100F400009F098FB06461DB1014625A006F032FDCA
:100F50003078322802D125A006F02CFD2468002C20
:100F6000E0D10020D7E700007B22000046100020DF
:100F700076616C75650000004572726F722C20748A
:100F800068652070686F6E65206C6973742070727C
:100F90006F7065727479206973206E6F7420666F4C
:100FA000756E642E000000004572726F72206A73C5
:100FB0006F6E206372656174652E00005F6164640A
:100FC00072657373000000005F616464726573731F
:100FD0003A2025730A0000005F636D640000000082
:100FE0005F636D643A2025730A000000636D64201E
:100FF000697320320A0D000010B502F06FFC0A4937
:1010000000200A4C08704FF4007284F81E06A11CE0
:10101000074802F0E3FA2078002803D1BDE8104029
:1010200006F034B910BD0000CC00002044100020B0
:1010300000060020F0B5ADF5017D002006F026FB8E
:101040004FF4967000F008FC1DA1684606F0C2FC43
:101050001C486A461CA1D0F81836104606F0BAFCA7
:101060006A4627A1104606F0B5FC6846FFF702F96C
:1010700085B269462EA006F09DFC314C40F6B8368C
:1010800041F69E3733463A462146002006F07EFB65
:101090000028F7D02A462BA140A806F09BFC40A8C8
:1010A00000F004FA4FF47A74204600F0D5FB68464D
:1010B00000F0FCF9204600F0CFFB0DF5017DF0BDFE
:1010C00047455400441000202573202F736D617232
:1010D000745F73656375726974792F616C61726D89
:1010E0002F6765743F5F67726F75705F69643D2538
:1010F0006420485454502F312E310D0A0000000056
:101100002573486F73743A2077656C6C2D656C6538
:101110006374726F6E6963732E61737573636F6D41
:101120006D2E636F6D3A37303730200D0A0D0A008F
:101130006275666665723A2573200D0A000000002C
:101140002F0D002041542B43495053454E443D3010
:101150002C25640D0A0000002DE9F041ADF5CC6DA1
:1011600000270E4604463D460DF5C968CDF85C766D
:10117000625D08F80520294653A006F01BFC6D1C93
:10118000102DF5DB55488DF8587655A1D0F8182666
:101190000DF5896006F01EFCE07B0EADF378B278A9
:1011A000717885E80F00E07A0AADA37B627B217B32
:1011B00085E80F00E07906ADA37A627A217A85E8A6
:1011C0000F00E07802ADA3796279217985E80F00FC
:1011D000A1786078CDE900010DF58962237847494F
:1011E000104606F0F7FB0DF58960FFF743F884B26F
:1011F00043A112A806F0EEFB12AA43A1104606F086
:10120000E9FB4D4B12AA1E464CA1104606F0E2FB2C
:1012100012AA23464EA1104606F0DCFB12AA52A1E8
:10122000104606F0D7FB12AA5CA1104606F0D2FBCE
:1012300012AA5EA1104606F0CDFB12AA0DF5896335
:1012400060A1104606F0C6FB12A8FFF713F884B29F
:10125000002006F01BFA41F6583541F69E372B4622
:101260003A463146002006F091FA0028F7D022468F
:1012700056A10DF5896006F0ADFB0DF5896000F013
:1012800015F94FF47A74204600F0E6FA12A800F03F
:101290000DF9204600F0E0FA12A951A006F08AFBF1
:1012A00053A301220DF25C6140F6B83006F038FB22
:1012B000012805D151A006F07DFB0020FFF774FD49
:1012C0000DF5CC6DBDE8F0816974683A2025642085
:1012D00069703A2578200D0A0000000044100020B3
:1012E0005F747970653D414C41524D265F67726F66
:1012F00075705F69643D25640000000044170108B3
:10130000504F5354000000002573202F736D6172FD
:10131000745F73656375726974792F646576696348
:10132000652F666565646261636B20485454502F75
:10133000312E310D0A0000002F0D00202573486F5B
:1013400073743A2025733A373037300D0A000000A5
:101350002573436F6E74656E742D4C656E6774688B
:101360003A2025640D0A00002573436F6E74656E84
:10137000742D547970653A206170706C6963617482
:10138000696F6E2F782D7777772D666F726D2D755B
:10139000726C656E636F6465640D0A00257341634A
:1013A000636570743A202F0D0A0000002573436FA7
:1013B0006E6E656374696F6E3A636C6F7365200D52
:1013C0000A0D0A00257325730000000041542B43C9
:1013D000495053454E443D302C25640D0A00000011
:1013E000776562206275666665723A2573200A0029
:1013F000226D657373616765223A31000D0A2073AF
:10140000656E736F7220616C61726D2070757368A8
:1014100065640D0A0000000010B51749ADF5027DA6
:10142000A122D1F81836A3211844CDE9000113A157
:1014300002A806F0CFFA02A8FEF71CFF84B244F21D
:10144000F81213461349012006F006FA224612A1AB
:1014500042A806F0BFFA42A800F028F84FF47A74C8
:10146000204600F0F9F902A800F020F8204600F02C
:10147000F3F90DF5027D10BD441000203078257879
:101480003078303130782578307825783078257884
:10149000000000002F0D002041542B4349505345BC
:1014A0004E443D312C25640D0A00000010B5044661
:1014B000FEF7E0FE214682B2BDE81040C823014895
:1014C00002F026B90006002003480168C90701D0D0
:1014D00001210160FEE70000140401404FF40050B8
:1014E00000F05ABA03480168890701D5022101605A
:1014F000FEE700001404014003480168490701D5D4
:1015000004210160FEE70000140401400348016863
:10151000090701D508210160FEE70000140401401D
:1015200070B50B4C20684FF08005000605D525608E
:10153000802000F02BFA0DF03BF94FF40070206092
:10154000401020602560402020602020206070BD79
:10155000140401400020FFF727FCFA2000F07CF97A
:10156000F8E70000134A00211068C305124804D5AB
:10157000416941F002014161911513689B0505D550
:10158000436943F00103436141F4007113681B0593
:1015900005D5436943F00403436141F400611368D6
:1015A000DB0405D5436943F02003436141F48051D6
:1015B00011607047183C02407404002070B5054665
:1015C00000F0DCFA0646134C09E0681C07D025B190
:1015D00000F0D4FA801BA84201D9032070BD206816
:1015E000C007F2D12068800701D502202060206862
:1015F000C00508D42068000505D42068C00402D4C2
:101600002068800503D5FFF7ADFF012070BD0020E5
:1016100070BD0000183C024010B5114C94B00FA1F1
:10162000A01CFEF715FE0422694608F0F3FF30B156
:101630000CA109F00EF810B1017C042902D00120A0
:1016400014B010BD8068FEF763FE0146C4F81806AA
:1016500006A006F0AFF90020F2E700007B220000B0
:101660004410002076616C756500000067726F752C
:10167000702069643A2564200D0A00000248416820
:1016800041F0020141607047002004E001680A68EF
:1016900022F00E020A6001680A6822F001020A6064
:1016A00090F84020C36B012101FA02F25A6080F8E1
:1016B0002110002180F8201008467047F0B4C16B5B
:1016C0000D6801680C68066C042202FA06F32B42CE
:1016D0000FD063070DD50B689B0603D40B6823F06E
:1016E00004030B6090F840108A40C16B4A60C16AE5
:1016F0001BE0022303FA06F72F424FF0000C4FF0D5
:10170000010216D0A70714D50C68A40605D40C68EE
:1017100024F00A040C6080F8212090F840108B40DF
:10172000C16B4B6080F820C0816A002918D0F0BCE2
:1017300008470823B3402B4212D0230710D50B686B
:1017400023F00E030B6090F84010C36B02FA01F116
:101750005960826380F8212080F820C0016BE4E7A3
:10176000F0BC704730B560B11C4A03681421934245
:1017700009D21B4A1A44B2FBF1F1890001641949EC
:101780000AE0012030BD154A52421A44B2FBF1F181
:101790008900016411490839C163022180F82110D0
:1017A0001A6843F6F0718A43F0E901142143D0E945
:1017B00002452C4321430469214344692143846940
:1017C000214311431960002141628162C1620163BA
:1017D0004163012242770177084630BD0864024028
:1017E000F89FFDBF0060024070B5044690F82000ED
:1017F000002501280CD0012084F8200094F82160F5
:101800000020012E06D084F820000225284670BD55
:10181000022070BD022684F82160A063206806685B
:1018200026F0010606602046FFF73AFBE06A002832
:101830002068016802D041F00E0106E021F00401A9
:1018400001602068016841F00A01016020680168B8
:1018500041F001010160D9E731B500F08FF904468C
:1018600000F08CF90099001B8842F9D338BD0000C4
:101870000348016841F00101016000207047000049
:10188000043C02402DE9F047064634480C46154614
:10189000017C01290BD00121814601744CF25037A3
:1018A0003846FFF78BFE4FF0000A18B112E0022015
:1018B000BDE8F087C9F814A0022E0ED0012E13D077
:1018C000D6B1DFF89C80042E21D0082E2CD0102E0B
:1018D00037D0012089F810A0EAE73846FFF76EFEFE
:1018E0000028F7D125600EE0ADB23846FFF766FE5E
:1018F0000028EFD1258006E0EDB23846FFF75EFE06
:101900000028E7D125703846FFF758FEE2E7EDB230
:101910003846FFF753FE0028DCD1D8F8001021F438
:101920008071C8F80010EDE7ADB23846FFF746FE0B
:101930000028CFD1D8F8001021F48071C8F8001029
:10194000D8E73846FFF73AFE0028C3D1D8F8001090
:1019500021F48071C8F80010C4E70000740400206E
:10196000043C024006480068C00707D00448054907
:101970000830016004490160002070470120704771
:10198000043C0240EFCDAB8905040302B0F5005FD3
:1019900001D1FFF79BBA7047044910B50A680242AB
:1019A00002D00860FFF7F2FF10BD000014040140F0
:1019B0002DE9F84FDFF880B100234FF0010C4FF014
:1019C000030A4FF00F090BF1040EAEE00CFA03F618
:1019D00014EA060270D04C68022C01D0122C11D1EE
:1019E000DC0800EB84073C6A5D07ED0E09FA05F898
:1019F00024EA0804D1F8108008FA05F848EA040837
:101A0000C7F8208007685D0091F804800AFA05F4A1
:101A100008F00308A74308FA05F848EA0708C0F8E1
:101A200000804F68012F05D0022F03D0112F01D065
:101A3000122F11D18768D1F80C80A74308FA05F856
:101A400048EA0708C0F808804768B7430E79C6F32C
:101A500000169E403E434660C668A6438C68AC4074
:101A60003443C4604C68E4005ED5344C256845F0CE
:101A700001052560246823F0030504F001040094A7
:101A80002F4C2E19B4689D072F0F09FA07F5AC43A8
:101A90002C4DA84201D100251FE02B4DA84201D1B9
:101AA00001251AE0294DA84201D1022515E0284D53
:101AB000A84202D1032510E036E0264DA84201D10C
:101AC00004250AE0244DA84201D1052505E0234D57
:101AD000A84201D1062500E00725BD402543B56099
:101AE000DBF800405D464E689443F60300D514438E
:101AF0002C60DEF8004075464E689443B60300D56E
:101B000014432C600C4D08352C684E689443F60243
:101B100000D514432C60084D0C352C684E68944356
:101B2000B60200D514432C605B1C0A681446DA40E8
:101B30007FF44CAFBDE8F88F00040140203802402C
:101B40000000014000000240000402400008024082
:101B5000000C024000100240001402400018024035
:101B60000069084000D00120704742694A40426144
:101B700070470AB1816170470904FBE701480068BA
:101B8000704700004000002002480168491C0160C5
:101B90007047000040000020094810B5016841F07E
:101BA00004010160016841F002010160032000F0BE
:101BB00071F80F2000F006F800F018F8002010BDB2
:101BC000003C024010B5044607484FF47A710068A3
:101BD000B0FBF1F001F080FA00222146501E00F027
:101BE00039F8002010BD00003C0000200D4808B569
:101BF000016841F001010160016801F001010091FB
:101C0000016841F004010160016801F004010091E4
:101C1000016841F008010160006800F008000090D0
:101C200008BD00001C38024000F01F020121914055
:101C30004009800000F1E020C0F88011704700F0FA
:101C40001F02012191404009800000F1E020C0F80E
:101C500000117047F0B40E4B1B680C46C3F302230F
:101C6000C3F10705042D00D90425191D072901D248
:101C7000002300E0DB1E012606FA05F1491E214083
:101C800099409E40761E16403143F0BC01F04CBE98
:101C90000CED00E0064900F0070208684FF6FF036C
:101CA000184040EA0220034A1043086070470000D1
:101CB0000CED00E00000FA052DE9F84F044600683D
:101CC000C10701D1800778D5DFF868810027D8F8EF
:101CD0000000C0000BD4D8F8001041F08051C8F8C3
:101CE0000010D8F80000012700F080500090524DFD
:101CF0002868C00510D4286840F480702860FFF779
:101D00003DFF064605E000BFFFF738FF801B642853
:101D10005CD82868C005F7D5464E243E3068616817
:101D200000F0C04001F0C042824204D1A26802F03B
:101D3000C042824209D0C1F30140032805D1306876
:101D4000800302D50120BDE8F88F3A4D1035286890
:101D500010F4403052D001F44031814202D0217859
:101D6000C90707D1A16801F44031814246D02078EB
:101D7000800743D528684FF4000292FAA2F1B1FA25
:101D800081F14FEA810C2D494FF0010A8C4420F477
:101D90004030CCF880A692FAA2F2B2FA82F201EBBD
:101DA00082010023C1F880362860C00526D5FFF7E0
:101DB000E5FE81464FF4007B0AE038E0FFF7DEFEE7
:101DC000A0EB090141F28830814201D90320BAE732
:101DD0009BFAABF0B0FA80F040F04001BAEB511F33
:101DE00001D1316800E029689BFAABF2B2FA82F2C5
:101DF00002F01F020AFA02F00142DFD06068C0F36D
:101E00000141032906D1316800F0C04021F0C041F2
:101E1000014331602868616801F44031084328605B
:101E20002FB1D8F8001021F08051C8F80010002020
:101E300089E700002438024000700040000047425B
:101E40002DE9F047DFF8BC8105460E46D8F80000C2
:101E500000F00100B04214D2012E05D1D8F80010D4
:101E600041F00401C8F80010D8F8001021F0010179
:101E70003143C8F80010D8F8000000F00100B0426B
:101E800071D12878604C800705D52068A96820F0BA
:101E9000F000084320602878C00771D05A4A5A4B96
:101EA00069680120083A2C33022910D003292ED06A
:101EB00001292FD05FEA402797FAA7FCBCFA8CFCD7
:101EC0004CF0200C5FEA5C1C04D0126803E04FF475
:101ED0000037F1E71A6897FAA7F3B3FA83F303F030
:101EE0001F039840024262D0206820F0030008439C
:101EF0002060FFF743FE6968074641F288300229F7
:101F000010D003291CD00129814626D034E04FF09F
:101F10000077D1E70227CFE7FFF730FEC11B494525
:101F200001D926E081462068C0F381000228F3D160
:101F300026E000BFFFF722FEC11B494501D918E08A
:101F400081462068C0F381000328F3D118E000BF68
:101F5000FFF714FEC11B49450BD82068C0F3810070
:101F60000128F5D10CE022E0FFF708FEC11B49452E
:101F700002D90320BDE8F087206810F00C0FF3D1E0
:101F8000D8F80010404601F00101B14211D9012EEC
:101F900003D1016841F004010160016821F00101F1
:101FA00031430160006800F00100B04201D001201F
:101FB000E0E72878400705D52068E96820F4E0606C
:101FC000084320602878000706D52068296920F496
:101FD000605040EAC100206000F052F82168F02211
:101FE00092FAA2F201F0F001B2FA82F2D140074A6D
:101FF000515CC840064908600F20FFF7E3FD002050
:10200000B8E70000003C024008380240B71301085E
:102010003C00002001480068704700003C000020A0
:1020200008480949006809684FF4E06292FAA2F290
:1020300001F4E061B2FA82F2D140044A515CC84036
:10204000704700003C00002008380240C713010818
:1020500008480949006809684FF4605292FAA2F2F0
:1020600001F46051B2FA82F2D140044A515CC84096
:10207000704700003C00002008380240C7130108E8
:102080001E4A116801F00C00042813D0082813D050
:102090000C2813D0101F006800F460414FF460401A
:1020A00090FAA0F0B0FA80F0C1404FF40040491C13
:1020B0008840704712487047124870474FF47013B9
:1020C00093FAA3F301F47010B3FA83F3D8400E4BE4
:1020D00001F440011268185C4FF4400393FAA3F333
:1020E000B3FA83F3D940491CD20301D5054A00E075
:1020F000034A5043B0FBF1F070470000083802403B
:102100000024F4000048E801AE1301082DE9F84F5F
:1021100007460078FE4EFF4DC0074FF0010428D05F
:10212000FB48083001684FF40038C1F381010229EF
:1021300007D00168C1F3810103291BD10068C003E6
:1021400018D598FAA8F0B0FA80F040F020004009C5
:1021500001D0306800E0286898FAA8F1B1FA81F15E
:1021600001F01F0104FA01F1084260D078680028EC
:102170007ED05CE0786801280AD008B1052813D029
:10218000306820F480303060306820F4802002E035
:10219000306840F480303060786838B3FFF7EEFC88
:1021A000814641F2883A0BE0306840F4802030608C
:1021B000EEE700BFFFF7E2FCA0EB0901514575D83F
:1021C00098FAA8F0B0FA80F040F02000400901D061
:1021D000306800E0286898FAA8F1B1FA81F101F0BE
:1021E0001F0104FA01F10842E4D020E0FFF7C6FC29
:1021F000814641F2883A05E0FFF7C0FCA0EB0901F7
:102200005145DCD898FAA8F0B0FA80F040F02000F0
:10221000400901D0306800E0286898FAA8F1B1FAC6
:1022200081F101F01F0104FA01F10842E4D138788C
:10223000DFF8E48280074FF0000B4FF0020961D510
:10224000B34808300168C1F38101012907D0016852
:10225000C1F3810103291DD10068C0031AD499FA82
:10226000A9F0B0FA80F040F02000400903D000E06F
:1022700089E0306800E0286899FAA9F1B1FA81F1A3
:1022800001F01F0104FA01F108422CD0F86801287E
:1022900079D128E0F868B0B394FAA4F0B0FA80F0ED
:1022A00048F82040FFF76AFC824607E067E100BF7C
:1022B000FFF764FCA0EB0A000228A2D899FAA9F063
:1022C000B0FA80F040F02000400901D0306800E012
:1022D000286899FAA9F1B1FA81F101F01F0104FA15
:1022E00001F10842E4D08A48001D01684FF4F85318
:1022F00093FAA3F33A69B3FA83F321F4F8519A40BD
:102300001143016025E0FFE794FAA4F1B1FA81F1ED
:1023100048F821B0FFF732FC824605E0FFF72EFCBB
:10232000A0EB0A000228C8D899FAA9F0B0FA80F008
:1023300040F02000400901D0306800E0286899FA98
:10234000A9F1B1FA81F101F01F0104FA01F108428B
:10235000E4D138784FF4007AC0067CD56C48083058
:10236000006810F00C0F0FD0B9694FF4807000298D
:1023700072D090FAA0F0B0FA80F048F82040FFF751
:10238000FDFB00907EE087E09AFAAAF0B0FA80F0B8
:1023900040F02000400901D0306800E028689AFA37
:1023A000AAF1B1FA81F101F01F0104FA01F108422A
:1023B00002D0B86900286FD05548396A001D0068FE
:1023C00000F4604081421AD9084601F0BFFA0028A3
:1023D00062D14F48001D01683A6A21F460411143FF
:1023E000016001684FF07F4393FAA3F3FA69B3FAEF
:1023F00083F321F07F419A401143016018E0444883
:10240000001D026822F460420A43026001684FF036
:102410007F4393FAA3F3FA69B3FA83F321F07F4180
:102420009A4011430160386A01F090FA0028CFD138
:102430004FF4604191FAA1F1386AB1FA81F1C840D4
:102440004FF40041401C8140314808300068F022C0
:1024500000F0F00001E070E040E092FAA2F2B2FA7F
:1024600082F2D0402D4A105CC1402D4801600F20FF
:10247000FFF7A8FB61E000BFFFF780FB0099401A5F
:1024800002287CD89AFAAAF0B0FA80F040F0200036
:10249000400902D0306801E0BCE128689AFAAAF14C
:1024A000B1FA81F101F01F0104FA01F10842E3D011
:1024B0001748001D01683A6A21F460411143016028
:1024C00001684FF07F4393FAA3F3FA69B3FA83F3F9
:1024D00021F07F419A40114301602EE090FAA0F074
:1024E000B0FA80F048F820B0FFF748FB009005E014
:1024F000FFF744FB0099401A0228C2D89AFAAAF1C1
:10250000B1FA81F141F0200149090BD031680AE0AC
:10251000003802403438024000004742B713010837
:102520003C00002029689AFAAAF0B0FA80F000F086
:102530001F0004FA00F00142DAD13878000753D5C1
:10254000786948B394FAA4F0B0FA80F008EB800000
:10255000C0F88046FFF712FB009005E0FFF70EFB86
:102560000099401A02288CD899FAA9F0B0FA80F0A4
:1025700040F04000B4EB501F02D1306801E08EE023
:10258000286899FAA9F1B1FA81F101F01F0104FA62
:1025900001F21042E2D027E094FAA4F1B1FA81F1FD
:1025A00008EB8101C1F880B6FFF7E8FA009005E07A
:1025B000FFF7E4FA0099401A022870D899FAA9F0B6
:1025C000B0FA80F040F04000B4EB501F01D1306809
:1025D00000E0286899FAA9F1B1FA81F101F01F0130
:1025E00004FA01F21042E3D1387840077BD59B48CA
:1025F0004FF000090068C0000AD49848016841F013
:102600008051016000684FF0010900F08050009097
:1026100093480168C90511D4016841F480710160D3
:10262000FFF7ACFA009005E0FFF7A8FA0099401A0E
:10263000642834D88A480068C005F5D5B8680128F0
:102640000AD008B1052811D0286820F480702860CD
:10265000286820F4806002E0286840F480702860D8
:10266000B86848B3FFF78AFA00900DE0286840F494
:1026700080602860F0E700BFFFF780FA0099411AF8
:1026800041F2883081420AD89AFAAAF0B0FA80F072
:1026900040F04000B4EB501F02D1306801E094E0FC
:1026A00028689AFAAAF1B1FA81F101F01F0104FA3F
:1026B00001F21042E0D022E0FFF760FA009007E05C
:1026C000FFF75CFA0099411A41F2883081427CD8C8
:1026D0009AFAAAF0B0FA80F040F04000B4EB501F34
:1026E00002D1306801E012E028689AFAAAF1B1FA42
:1026F00081F101F01F0104FA01F21042E0D1B9F1B9
:10270000000F04D05548016821F080510160786ABB
:10271000E0B3DFF84891A9F11C09D9F80010C1F322
:102720008101032976D002284FF0807158460CD0E1
:1027300091FAA1F1B1FA81F148F82100FFF71EFAF0
:10274000B04607464FF000766EE08A4691FAA1F156
:10275000B1FA81F1C34648F82100FFF70FFA80462D
:102760004FF0007606E000BFFFF708FAA0EB080084
:10277000022856D896FAA6F0B0FA80F040F0200071
:10278000400904D035482438006801E062E0286838
:1027900096FAA6F1B1FA81F101F01F0104FA01F1F4
:1027A0000842E1D1D7E90A103A6BD9F80030014369
:1027B00023F47D031A431143C9F800109AFAAAF0D2
:1027C000B0FA80F04BF8204000E02AE0FFF7D6F99D
:1027D000DFF888800746A8F1240804E0FFF7CEF967
:1027E000C01B02281DD896FAA6F0B0FA80F040F07F
:1027F0002000400902D0D8F8000000E0286896FACE
:10280000A6F1B1FA81F101F01F0104FA01F10842C9
:10281000E4D01FE020E000BFFFF7B0F9C01B0228A2
:1028200002D90320BDE8F88F96FAA6F0B0FA80F03E
:1028300040F02000400902D0D8F8000000E02868ED
:1028400096FAA6F1B1FA81F101F01F0104FA01F143
:102850000842E1D10020E5E70120E3E72438024007
:102860000070004070B5040002D0607F10B106E037
:10287000012070BD00202077204600F041F80220A2
:1028800060772168CA204862216853204862204648
:1028900001F0CAF8FF210028206803D0416204201B
:1028A0006077E5E78268154B1A408260226890687D
:1028B00063681843D4E904352B43184390602268B9
:1028C000E068106120680269238942EA03420261DC
:1028D0002068C26822F08002C2602068026C22F484
:1028E000802202642068026CA3691A430264206893
:1028F000416201206077002070BD0000BFFF8FFFA4
:1029000010B590B00C200090002001240990029096
:1029100005946846FFF7FAFB08B1FEF71BFE4FF47B
:102920000030CDE90D400DA8FFF7C6F908B1FEF75C
:1029300011FE4FF4800090FAA0F00849B0FA80F040
:1029400001EB8000C0F8804600220F210220FFF733
:1029500081F90220FFF773F910B010BD0000474263
:102960002DE9F0470446007F0B46012825D04FF0A3
:10297000010984F81C9002206077587802B301F0B6
:1029800025F8987801F022F89878D97840EA01453E
:1029900058781978000240EA413005432168CA207E
:1029A0004862216853204862204601F03DF8002625
:1029B000FF274FF0040838BB19E00220BDE8F0877C
:1029C000C10603D500F0EF000A305870D87801F046
:1029D00006F80204587801F002F842EA00229878DA
:1029E00000F0FDFF0243187842EA4035D6E70D4873
:1029F0000540206845602068C16821F08001C16001
:102A0000204600F085F830B12068476284F81D80C8
:102A100026770120D2E72068476284F81D90267748
:102A20000020CBE73FFFFF002DE9F0470446007F81
:102A30000D46012811D04FF0010A84F81CA0022095
:102A400060772068002680684FEA406042B1002825
:102A50001ADA287800F0BAFF17E00220BDE8F08704
:102A6000002800DBEE70287800F0B9FF02046878D7
:102A700000F0B5FF42EA0022A87800F0B0FF024360
:102A8000E87842EA00470AE0EE70A878297840EA40
:102A900001476878E978000240EA0140074321686D
:102AA000CA204862216853204862204600F0BCFFDB
:102AB0004FF0FF084FF00409C0B9144807402068E0
:102AC00007602068816821F480218160D5E90301D5
:102AD000084321688A68104388602068C16821F033
:102AE0008001C160204600F013F838B12168C1F8B8
:102AF000248084F81D9026770120AFE72168C1F873
:102B0000248084F81DA026770020A7E77F7F7F0020
:102B100070B5044600688168890614D4C16821F044
:102B2000A001C160FFF72AF805464FF47A7606E067
:102B3000FFF724F8401BB04201D9032070BD206884
:102B4000C0688006F4D5002070BD10B504000ED01A
:102B50002068016821F040010160204600F04EF835
:102B60000020606584F8510084F8500010BD0120F9
:102B700010BD90F85100704770B5040004D094F86F
:102B80005100002510B106E0012070BD84F85050BE
:102B9000204600F035F8022084F8510020680168D2
:102BA00021F040010160D4E901010843D4E9031296
:102BB0001143084361690843218B01F40071084304
:102BC000E1690843216A0843A16A08432168086053
:102BD000A069042101EA1040616A08432168486045
:102BE0002168E06A08612068C16921F40061C1615F
:102BF0006565012084F85100002070BD7047000019
:102C00002DE9F04300682D4987B0884252D12C4C01
:102C1000206840F002002060206800F0020005906B
:102C2000206840F001002060206800F0010005905D
:102C3000206840F00100206020684FF0050800F097
:102C40000100CDE9048002250126032708208DE834
:102C5000E100DFF8709069464846FEF7A9FE02A839
:102C6000019580E8A001DFF8608040256946404674
:102C70000095FEF79DFE8020009069464046FEF7D5
:102C800097FE206840F0020020602068694600F04E
:102C900002000590CDE900564846CDE90267FEF7EF
:102CA00087FE201D016841F480510160006800F436
:102CB0008050059007B0BDE8F0830000003001406F
:102CC0001C38024000040240000002402DE9F84395
:102CD000044690F85100984601286ED139B332B3BA
:102CE00094F85000012868D0012684F85060122022
:102CF00084F85100002565652163A286E286E564BB
:102D0000A564A563A587E587A06A7703B84209D1C2
:102D10002068016821F4005101602068016841F4D5
:102D200000510160A068B0F5004F03D007E001201A
:102D3000BDE8F8832068016841F4804101602068A3
:102D40000168490603D4016841F040010160E06870
:102D50000028606804D0D0B1E08E012817D020E0B0
:102D600010B1E08E012808D1206B411C216321683D
:102D70000078C860E08E401EE086E08EF0B14346E9
:102D800000220221204601F08DFCA0B9ECE7206B67
:102D900021680088C860206B801C2063E08E401E84
:102DA000E086E08E50B1434600220221204601F029
:102DB00079FC0028EBD00320BAE726E0A06AB842ED
:102DC00004D12068016841F480510160434600222B
:102DD0000221204601F066FC30B9434601228021E1
:102DE000204601F05FFC20B1606D40F0200060657E
:102DF000E1E7A06818B92068C1688068009084F88D
:102E0000516084F85050002092E7022090E72DE9AD
:102E1000F8430025DDF820800446ADF8005090F816
:102E20005100012803D094F8510022287DD169B1C6
:102E300062B15BB194F85000012876D0012684F885
:102E4000506094F85100012803D005E00120BDE84E
:102E5000F883322084F851006565A263A387E38775
:102E60002163A386E386A564E564A06A4FF4005756
:102E7000B84209D12068016821F40051016020683E
:102E8000016841F40051016020680168490603D4DB
:102E9000016841F040010160E0684FF48271B0F5D3
:102EA000006F606807D0002867D088426ED1E08E3E
:102EB000012862D06AE020B188420CD1E08E01285E
:102EC00009D1206B21680088C860206B801C2063BA
:102ED000E08E401EE086E08E40BBA06AB84244D13E
:102EE0002068016841F4805101603EE02068C068BC
:102EF000A16B0880A06B801CA0639EE0434600226B
:102F00000221204601F0CEFB002874D1206B2168FD
:102F10000088C860206B801C2063E08E401EE08625
:102F2000E08E50B9A06AB84201E0C7E017E004D1D2
:102F30002068016841F4805101604346002201216C
:102F4000204601F0AFFB00286FD12068C068A16B5C
:102F50000880A06B801CA063E08F401EE087E08E9D
:102F60000028CBD1606800286AD1434600220121A5
:102F7000204601F097FBF0BBB8E7206B411C2163B2
:102F800021680078C860E08E401EE086E08E98BB25
:102F9000A06AB84204D12068016841F48051016000
:102FA000434600220121204601F07CFB18BB20682B
:102FB000C068A16B087040E0434600220221204611
:102FC00001F070FBB8B9206B411C216321680078C7
:102FD000C860E08E401EE086E08E38B9A06AB84234
:102FE00004D12068016841F4805101600022434609
:102FF0000121204601E018E00BE001F053FBA0B9ED
:103000002068C268A06B411CA1630270E08F401E63
:10301000E087E08E0028CFD1606888B9434600225F
:103020000121204601F03EFB08B103200FE7206894
:10303000C168A06B421CA2630170E08F401EE08754
:10304000A06AB84210D1434600220121204601F077
:1030500029FB18B1606D40F002000FE02068C068E5
:10306000ADF80000BDF80000434601228021204653
:1030700001F018FB20B1606D40F020006065D4E7DE
:1030800084F85160A06AB84214D120688168C943AD
:10309000C9060FD4616D41F002016165016821F438
:1030A000005101602068016841F40051016084F81A
:1030B0005050CBE684F850500020C8E60220C6E607
:1030C0004FF0E0210428086903D020F004000861D3
:1030D000704740F00400FAE710B5401EB0F1807F61
:1030E00001D3012010BD4FF0E02460610F21601773
:1030F00000F01AFC0020A06107202061002010BD14
:1031000010B5040003D094F8350010B107E0012099
:1031100010BD002084F83400204600F00DF8022095
:1031200084F83500211D206803F02CFC012084F870
:103130003500002010BD000008B50068B0F1804FD8
:1031400012D10A48016841F00101016000680022C3
:1031500000F00100009011461C20FEF77BFDBDE849
:1031600008401C20FEF76BBD08BD0000243802405B
:103170000168CA6842F00102CA600068016841F053
:10318000010101600020704770B5044690F83400DA
:10319000012817D0012584F83450022084F8350026
:1031A0002068826822F0770222F47F4282600868F9
:1031B000502837D00DDC202859D005DC88B31028E2
:1031C00041D151E0022070BD302853D040283AD17F
:1031D0003FE060282ED070280BD0B0F5805F03D080
:1031E000B0F5005F2FD110E02068816821F0070161
:1031F00015E0CB68D1E90121206803F001FC2168CA
:10320000886840F0770088601DE0CB68D1E9012133
:10321000206803F0F5FB2068816841F480418160FB
:1032200011E01EE0CA684968206803F058FC50218C
:10323000206806E0CA684968206803F061FC6021E4
:10324000206803F0E7FB84F83550002084F8340050
:1032500070BDCA684968206803F041FC40212068BD
:10326000EFE700212068ECE710212068E9E7202142
:103270002068E6E730212068E3E770B5044690F85F
:10328000340001280DD0012584F83450022084F840
:10329000350042B1042A0AD0082A0CD00C2A11D1D8
:1032A0000DE0022070BD206803F0BCFB0AE020683E
:1032B00003F0CEFB06E0206803F0E2FB02E02068AA
:1032C00003F0F5FB84F83550002084F8340070BD1D
:1032D00010B5040003D094F8350010B107E00120C8
:1032E00010BD002084F83400204600F00CF80220C5
:1032F00084F83500211D206803F044FB012084F888
:103300003500002010BD704708B590F8381001292D
:1033100013D0012180F8381090F8391000221229BA
:103320000DD090F8391022290ED090F8391032299A
:1033300012D080F83820012008BD022008BD0168A5
:103340004B6943F080030EE001680B684B68009303
:103350004B6943F0400306E001680B684B6800933B
:103360004B6943F0C0034B6180F83820002008BD52
:1033700010B504460068416921F0C0014161206B2D
:1033800008B1FEF783F9606B08B1FEF77FF9012001
:1033900084F83900002010BD7047000038B504469D
:1033A00000680168C1680168C26811F0010F02F489
:1033B000807204D01AB1E16B41F00101E163016850
:1033C000C1F34002416901F0010122B119B1E26B80
:1033D00042F00402E2630268C2F3800222B119B132
:1033E000E26B42F00202E2630268C2F3C00222B161
:1033F00019B1E16B41F00801E1630168C068C1F3F4
:10340000401100F0200019B110B1204603F0E6FB96
:1034100021680868C968C0F3C01001F0800118B1C4
:1034200011B1204603F094FD21680868CA68C0F312
:10343000801002F04002012570B16AB1CA682046CE
:1034400022F04002CA6094F83910322911D080F875
:10345000395000BF00F0C2F9E06B002808D02068A6
:1034600001684068009084F839502046FFF794FFC7
:1034700038BD222180F83910ECE770B5040004D083
:1034800094F83900002510B106E0012070BD84F8E1
:103490003850204600F020F8022084F839002068D7
:1034A000C16821F40051C160204603F0EBFB2068A5
:1034B000016921F4904101612068416921F02A01EC
:1034C00041612068C16841F40051C160E563012099
:1034D00084F83900002070BDF0B53B490646DFF89E
:1034E000E4C007680025384808390222032308246D
:1034F00087B0674534D1076847F400270760006844
:1035000000F400200590086840F0807008600868AA
:1035100002AF00F0807005909802CDE90002012012
:1035200087E8190069462948FEF742FA0022114649
:103530003020FEF78FFB3020FEF781FB254C24481E
:10354000C4E900058020C4E9025025616561A561D8
:103550002046E561FEF706F97463666207B0F0BDC8
:103560000E6846F001060E600E6806F0010605962C
:103570000E6846F001060E60096801F00101059130
:10358000016841F4003101600068134E00F400301E
:10359000059004208DE825000725CDE9033569460F
:1035A0003046FEF705FA6946304604950094FEF76A
:1035B000FFF9002211462620FEF74CFB2620FEF7DD
:1035C0003EFBCBE7004C004024380240000802409C
:1035D00030640240400600200000024070B50446FE
:1035E00090F83900012801D0122831D161B35AB3C3
:1035F00094F8380001282BD0012084F83800A1620B
:10360000A2850025E56394F8390012281ED02220F7
:1036100084F83900636B0F489862606BC562636B16
:103620000D48186308461346666B2168024630460B
:10363000091DFEF7D9F82068416941F04001416158
:1036400084F83850002070BD012070BD3220DFE7C3
:10365000022070BDA56B0008856B000890F839301A
:10366000012B01D0122B2CD139B332B390F8383062
:10367000012B26D0012380F8383081628285C285F3
:103680000021C16390F83920122A18D05FF022027D
:1036900080F8392080F838100168CA6842F48072D6
:1036A000CA6001684A6942F001024A610068C16863
:1036B00041F02001C1600020704701207047322294
:1036C000E6E702207047000010B50C4A01689142FD
:1036D00005D14A15BDE810400949FFF77FBF0948E9
:1036E00081420AD1084800780AF05AFEBDE810402D
:1036F000012205490548FFF7B1BF10BD004C00404D
:10370000A406002000440040E4030020A408002098
:103710002DE9F047044690F8390099460D460128F6
:1037200001D0222858D12DB322B394F838000128B3
:1037300052D0012684F838600027E76394F83900F6
:1037400022281AD05FF0120084F83900A284E284A3
:103750004FF48058E08C4B46401EE084A0684FF048
:10376000000240454FF08001204613D103F023FCB6
:1037700008BB04E00120BDE8F0873220E4E7288898
:103780002168C0F308004860206908B16D1C08E09A
:10379000AD1C06E003F00FFC68B9216815F8010BB9
:1037A0004860E08C0028D5D14B46002240212046BD
:1037B00003F001FC08B10320DDE794F8390032285A
:1037C00006D084F8396000BF84F838700020D2E752
:1037D000222084F83900F7E70220CCE77047FEE7A3
:1037E00038B50020009008F0E5FF2C4C2070012037
:1037F00008F0E0FFA4F5A46290700225002305E024
:10380000E81808F0D7FFD118C8725B1C907898426E
:10381000F6DC90784319184608F0CCFFD0705D1C98
:10382000002306E0E81808F0C5FFD11881F80B0165
:103830005B1CD0789842F5DCD0784319184608F024
:10384000B9FF10715D1C002306E0E81808F0B2FF14
:10385000D11881F80B025B1C10799842F5DC1079C5
:10386000431900226D46981808F0A4FFA854521C72
:10387000042AF8D39DF80310D4F8180640EA016032
:103880009DF8021040EA01409DF8011040EA012035
:103890009DF800100843C4F8180638BD44100020F5
:1038A0000D4808B5016841F001010160016801F0AF
:1038B00001010091016841F004010160016801F01B
:1038C00004010091016841F008010160006800F006
:1038D0000800009008BD00001C38024038B50E48B2
:1038E000016841F40021016000680D4C00F40020E3
:1038F00000900A4820604FF4E1300025C4E901053A
:103900000C20E560C4E90450A5612046E561FFF79D
:10391000B4FDE56338BD000024380240004C00408F
:1039200000060020FEE770470907090E002806DAA6
:1039300000F00F0000F1E02080F8141D704700F146
:10394000E02080F8001470477047000038B51C492B
:10395000002309681B4A11F0F00F23D118491C31CC
:103960000C68E500184C03D5216801F4C0540EE042
:103970000D6845F080550D600D6805F08055009587
:1039800024680D6804F4C05425F080550D60B4F52A
:10399000C05F07D1B0F5404F04D11068012340F05B
:1039A00004001060106820F00100184310601068D7
:1039B00000F00100984201D0012038BD002038BD40
:1039C00008380240003C024000700040010901EB51
:1039D000810100F00F0000EB4100C0B270470021F0
:1039E00002E00A38C0B2491C0A28FAD2090740EAA4
:1039F000116070470B4810B50949016040214160D2
:103A00007F2181604FF49871C160002101614161A3
:103A10008161FEF727FF002801D0FDF79BFD10BD57
:103A2000002800408406002070B504460068C16884
:103A3000490614D44FF0FF31C160FEF79FF80546E8
:103A40004FF47A7607E000BFFEF798F8401BB042CB
:103A500001D9032070BD2068C0684006F4D500205D
:103A600070BD000000B587B014208DF8170002204B
:103A70008DF8150018218DF816108DF8140001220C
:103A800005A90E48FEF76CFF98B908208DF80000D4
:103A900010208DF8010000208DF802008DF8030041
:103AA00003900490012269460448FEF7BDFF0028F8
:103AB00001D0FDF74FFD07B000BD000084060020D7
:103AC0002DE9F043044627480D4687B0016841F0D0
:103AD00001010160016801F001010591016841F0F7
:103AE00004010160016801F004010591016841F0E1
:103AF000020101600068022D00F0020005902ED046
:103B00000020194E019006F1200736F814000090AD
:103B100057F8240006F10C080290DFF8509058F88E
:103B20002400039059F824006946FDF741FF012D58
:103B300012D136F81400009057F82400029058F87B
:103B40002400039006F13400694650F824000190E7
:103B500059F82400FDF72CFF07B0BDE8F0830120E1
:103B6000CFE700001C380240681301082000002045
:103B700070B5084D04461E462857FEF76BF82857C7
:103B80001EB1BDE87040FEF75AB8BDE87040FEF7C0
:103B90004BB80000641301080D4900B50A6887B0EE
:103BA00042F002020A60096801F002010591094928
:103BB00031F810100091012101910291032103912C
:103BC000054951F820006946FDF7F2FE07B000BD37
:103BD0001C380240AC13010834000020FEB500245C
:103BE000029480218DF808108DF809000422ADF8A8
:103BF000044001AD234611460320FFF7B9FF1F4ED5
:103C0000002240213046FDF7B4FFADF8004004E04B
:103C1000BDF80000401CADF80000BDF80000FF2812
:103C2000F6D9174C012301AA2068009002A9154873
:103C3000FFF7EDF8BDF804004FF6FF7101EA002030
:103C4000ADF80400206801AA00900123511D0D4821
:103C5000FFF7DDF80B4800688168C9438907FBD48A
:103C6000012240213046FDF784FF04220123114642
:103C70000320FFF77DFF2888FEBD000000040240FE
:103C8000380000201C04002010B50F48FEF771FF1B
:103C9000002818D10C480D4901600821C16100219C
:103CA0008160416107220161C0E90A12C1604FF4DD
:103CB00000720162826141624FF482714160BDE82D
:103CC0001040FEF759BF10BD1C0400200030014019
:103CD0002DE9FF47884607460121FF208DF808108F
:103CE00000248DF80C008DF809000422ADF8044082
:103CF00001AE234611460320FFF73AFFDFF89C9000
:103D0000002240214846FDF734FFADF8004004E0B2
:103D1000BDF80000401CADF80000BDF80000FF2811
:103D2000F6D91F4D012301AA2868009002A91D4859
:103D3000FFF76DF8BDF804004FF6FF7101EA0020AF
:103D4000ADF80400286801AA00900123511D154810
:103D5000FFF75DF8002409E02868009008EB0402F2
:103D6000012303A90F48FFF752F8641CBC42F3DBA0
:103D70000C4800688168C9438907FBD401224021AF
:103D80004846FDF7F6FE0422012311460320FFF703
:103D9000EFFE308804B0BDE8F08700000004024068
:103DA000380000201C0400202DE9FF470F460024A6
:103DB000FF218DF80C10029401218DF80810904617
:103DC0008DF809000422ADF8044001AE23461146E7
:103DD0000320FFF7CDFEDFF8A090002240214846E7
:103DE000FDF7C7FEADF8004005E000BFBDF80000DC
:103DF000401CADF80000BDF80000FF28F6D91F4DAB
:103E0000012301AA2868009002A91D48FEF7FFFFC0
:103E1000BDF804004FF6FF7101EA0020ADF8040080
:103E2000286801AA00900123511D1548FEF7EFFFF5
:103E3000002409E02868009008EB0402012303A98C
:103E40000F48FEF7E4FF641CBC42F3DB0C4800683B
:103E50008168C9438907FBD4012240214846FDF708
:103E600088FE0422012311460320FFF781FE3088DB
:103E700004B0BDE8F08700000004024038000020D4
:103E80001C0400202DE9FE430024064602948DF810
:103E90000840FF200F468DF809000422ADF80440C9
:103EA00001AD234611460320FFF762FEDFF88C8048
:103EB000002240214046FDF75CFEADF8004004E0E2
:103EC000BDF80000401CADF80000BDF80000FF2860
:103ED000F6D91B4C012301AA2068009002A91948B9
:103EE000FEF795FFBDF804004FF6FF7101EA0020D0
:103EF000ADF80400206801AA00900123511D11486B
:103F0000FEF785FF002403E0385D00F01BFC641C15
:103F1000B442F9DB0B4800688168C9438907FBD4C8
:103F2000012240214046FDF724FE042201231146D0
:103F30000320FFF71DFE2888BDE8FE830004024031
:103F4000380000201C0400202DE9FE4300240294C8
:103F500017468DF808400E468DF809000422ADF88A
:103F6000044001AD234611460320FFF701FEDFF8B0
:103F70009080002240214046FDF7FBFDADF8004057
:103F800005E000BFBDF80000401CADF80000BDF822
:103F90000000FF28F6D91B4C012301AA20680090DD
:103FA00002A91948FEF733FFBDF804004FF6FF7170
:103FB00001EA0020ADF80400206801AA0090012366
:103FC000511D1148FEF723FF002403E0385D00F087
:103FD000B9FB641CB442F9DB0B4800688168C94333
:103FE0008907FBD4012240214046FDF7C2FD04228F
:103FF000012311460320FFF7BBFD2888BDE8FE839F
:1040000000040240380000201C0400202DE9F0418B
:10401000032003F0BBF940F6B83122A003F0A6F963
:10402000012003F079FB4FF47A763046FDF714FC5B
:104030001F4C002504F20B170B3400223946204692
:1040400003F05AFA18B11BA003F0B4FC04E0022DEF
:1040500018D06D1C032DF0DB3046FDF7FDFB002072
:1040600003F014FB194C41F6583541F69E362B46A9
:1040700032462146002003F089FB0028F7D0B0200B
:10408000BDE8F081002003F001FB4FF49674204658
:10409000FDF7E2FB012003F079F92046FDF7DCFB98
:1040A000B120EDE741542B5253540D0A000000009B
:1040B000240B00200D0A207769666920636F6E6EFD
:1040C0006563746564200D0A000000002F0D002058
:1040D0002DE9F043204887B090F80D90827B90F84E
:1040E0000F80067C457C847C477D1CA003F062FC2D
:1040F0003A4649461EA003F05DFC2B463246414637
:1041000020A0009403F056FC524623A101A803F01E
:1041100061FC01A8FDF7CAF94FF49670FDF79CFB0E
:10412000A1208DF8180005208DF81900A3208DF826
:104130001A0000208DF81B0006AA1CA101A803F09C
:1041400049FC01A8FDF7B2F94FF4FA70FDF784FBC2
:1041500007B00120BDE8F083441000200D0A206C58
:10416000656E3A25642C20636D643A202578000042
:104170000D0A206865616465723A25782C454F50B8
:104180003A2578000D0A2069703A25642E25642EA0
:1041900025642E256400000041542B4349505345AB
:1041A0004E443D25642C330D0A00000025730000A9
:1041B00070B5634D92B0A5F5A464A87B2070E87B30
:1041C0006070287C80F0A800A070687C80F0A80057
:1041D000E070A87C80F0A8002071E87C80F0A80046
:1041E000E080287D80F0A8002081687D80F0A80014
:1041F000A072142005E02918401C8A7882F0A802D9
:104200008A70A178E2781144227923891A441144F2
:10421000A27A114418318142EDDAA2784849163168
:104220000E46A1F22B50FBF7E1FFE278A07881194E
:104230004448FBF7DBFFA078E17822790844811934
:104240004148FBF7D3FFA07821790844E178E28860
:10425000294401443D481631FBF7C8FFA078E178B6
:1042600008442179E28811440844228941193748D9
:1042700016310A30FBF7BAFFA078E17808442179BB
:10428000E288114408442189A27A0844411930483F
:104290001631FBF7ABFFA27800202A49FF395054B2
:1042A000E27801F580715054227901F58071505403
:1042B000E28801F58071505422890A315054A27A63
:1042C00001F580715054A1218DF8401003218DF823
:1042D0004110B0218DF84210B3218DF84310A32175
:1042E0008DF844108DF845001AA1684603F072FB62
:1042F0006846FDF7DBF84FF47A742046FDF7ACFA18
:1043000010AA19A108A803F065FB08A8FDF7CEF8CC
:104310002046FDF7A1FAFFF779FEB0280CD0002067
:1043200003F0B4F94FF49670FDF796FA012003F00C
:104330002DF8992012B070BD02202870B020F9E746
:10434000441000202F0C00202F0D00202F0E0020E5
:10435000390F002041542B43495053454E443D30C2
:104360002C350D0A000000002573000010B5ADF5D6
:10437000CB6D14210DF23C60FBF75FFF4F4B50A15A
:10438000A3F580720DF23C4003F024FB56480DF17A
:104390002C0C017BC47B837B427B8CE81E00017A62
:1043A0000DF11C0CC47A837A427A8CE81E000179E4
:1043B0000DF10C0CC479837942798CE81E004178A8
:1043C000C37882788DE80E0003780DF23C424749AD
:1043D000104603F0FFFA0DF23C40FBF74BFF84B2AE
:1043E00043A10FA803F0F6FA0FAA43A1104603F069
:1043F000F1FA0FAA4C4B4DA1104603F0EBFA0FAAAD
:1044000023464FA1104603F0E5FA0FAA52A1104629
:1044100003F0E0FA0FAA5DA1104603F0DBFA0FAA41
:104420005EA1104603F0D6FA0FAA0DF23C4361A13B
:10443000104603F0CFFA0FA8FBF71CFF82B25FA172
:104440000DF23C4003F0C6FA0DF23C40FDF72EF8A9
:104450004FF47A742046FDF7FFF90FA8FDF726F810
:104460002046FDF7F9F95AA301220DF5CA6140F67D
:10447000B83003F055FAF0B1584C04202070FDF725
:10448000CBF800F07BF9012084F81E060FA954A098
:1044900003F090FA0020FCF779FC002003F0F6F816
:1044A0004FF49670FDF7D8F9012002F06FFFB020AD
:1044B0000DF5CB6D10BDB320FAE70000390F0020D9
:1044C0005F747970653D5349474E5F494E265F677B
:1044D0006F6F676C655F69643D2573265F676D74F8
:1044E0005F6D696E3D257300CC040020D416010871
:1044F000504F5354000000002573202F736D6172DC
:10450000745F73656375726974792F646576696326
:10451000652F726567697374657220485454502F13
:10452000312E310D0A0000002F0D00202573486F39
:1045300073743A2025733A373037300D0A00000083
:104540002573436F6E74656E742D4C656E67746869
:104550003A2025640D0A00002573436F6E74656E62
:10456000742D547970653A206170706C6963617460
:10457000696F6E2F782D7777772D666F726D2D7539
:10458000726C656E636F6465640D0A002573416328
:10459000636570743A202F0D0A0000002573436F85
:1045A0006E6E656374696F6E3A636C6F7365200D30
:1045B0000A0D0A00257325730000000041542B43A7
:1045C000495053454E443D302C25640D0A000000EF
:1045D000226D657373616765223A310044100020D3
:1045E000706F73743A0D0A25730000002DE9F041D5
:1045F000012002F0CBFE40F6B8311FA002F0B6FE5B
:10460000012003F089F84FF47A70FDF725F91D4E6B
:104610000025A6F5A46404F20B170B3400223946DA
:10462000204602F069FF30B1012086F81E0616A070
:1046300003F0C0F904E0022D18D06D1C032DEDDB52
:10464000002003F023F8164C41F6583641F69E350B
:1046500033462A462146002003F098F80028F7D078
:104660000020FCF793FBB020BDE8F081002086F825
:104670001E06B120F8E7000041542B5253540D0A96
:1046800000000000441000200D0A207769666920B0
:10469000636F6E6E6563746564200D0A0000000030
:1046A0002F0D00202DE9F0471D4690460E4604468A
:1046B000FDF764FA07465FEA08004FF000084FF480
:1046C000005A4FF0010926D034E0681C23D025B1F0
:1046D000FDF754FAC01BA8421DD92068416821F09B
:1046E000E00141602068016821F040010160A06A9A
:1046F000504509D12068016821F40051016020680B
:10470000016841F40051016084F8519084F85080B0
:104710000320BDE8F0872068806836EA0000D4D125
:104720000DE0681C06D0002DD7D0FDF727FAC01B7E
:10473000A842D2D82068806836EA0000F1D0002074
:10474000E7E7000001B50A4800688168C9438907A6
:10475000FBD408480122694603680548FEF7B6FA0B
:10476000002804D00248FEF7F0F9FFF78DFA08BDE3
:104770001C04002038000020704700002DE9F041A3
:10478000224F002039780CF017FDA7F5A464012012
:10479000A1780CF011FD0226002505E06019C17A10
:1047A00070190CF009FD6D1CA078A842F6DCA07809
:1047B000E178851928460CF0FFFC00266D1C06E008
:1047C000A01990F80B11A8190CF0F6FC761CE078F3
:1047D000B042F5DCE0782179054428460CF0ECFC89
:1047E00000266D1C06E0A01990F80B12A8190CF019
:1047F000E3FC761C2079B042F5DC2079D7F8181656
:104800002844BDE8F0410CF0E9BC00004410002051
:1048100008B56A460121E520FFF7C6FA11490A7872
:1048200060F300020A700A78430863F347020A70D3
:104830004A78000A60F300024A704A78430863F33A
:1048400041024A704A78830863F382024A70C208C0
:10485000487862F3C30048709DF8000000F07F00C4
:1048600008BD00001000002038B504466A4601214A
:104870009E20FFF799FA9DF80000012C00F0F90145
:104880008DF800100AD041F0040000BF8DF8000040
:104890006A4601219E20FFF757FB38BD41F0020018
:1048A000F4E7000038B505466A4601216F20FFF79E
:1048B0007BFA244C217860F30001217021784208B2
:1048C00062F3470121706178000A60F300016170B2
:1048D0006178420862F3410161706178820862F395
:1048E00082016170C108607861F3C30060709DF857
:1048F00000006A4600F0800028438DF80000012186
:104900006F20FFF721FB217860F3000121702178EF
:10491000420862F3470121706178000A60F30001E8
:1049200061706178420862F34101617061788208C8
:1049300062F382016170C108607861F3C300607046
:1049400038BD00001000002038B505466A46012138
:104950006E20FFF729FA244C217860F300012170C2
:104960002178420862F3470121706178000A60F300
:10497000000161706178420862F341016170617801
:10498000820862F382016170C108607861F3C3003C
:1049900060709DF800006A4600F0800028438DF8A2
:1049A000000001216E20FFF7CFFA217860F30001AB
:1049B00021702178420862F3470121706178000A72
:1049C00060F3000161706178420862F34101617037
:1049D0006178820862F382016170C108607861F3D6
:1049E000C300607038BD00001000002038B50546D7
:1049F0006A4601215020FFF7D7F9264C217860F351
:104A0000000121702178420862F34701217061782A
:104A1000000A60F3000161706178420862F34101AD
:104A200061706178820862F382016170C108607808
:104A300061F3C30060709DF80000012D27D020F0C5
:104A4000020000BF8DF800006A4601215020FFF7E8
:104A50007BFA217860F3000121702178420862F32B
:104A6000470121706178000A60F30001617061788C
:104A7000420862F3410161706178820862F3820149
:104A80006170C108607861F3C300607038BD40F0A8
:104A90000200D7E71000002010B5FFF79FF80F497C
:104AA0000A7860F300020A700A78430863F3470249
:104AB0000A704A78000A60F300024A704A78430894
:104AC00063F341024A704A78830863F382024A70B2
:104AD000C208487862F3C300487010BD100000207F
:104AE00008B54178827811438DF8001000786A4645
:104AF0000121FFF729FA0F490A7860F300020A70D2
:104B00000A78430863F347020A704A78000A60F3A0
:104B100000024A704A78430863F341024A704A78B7
:104B2000830863F382024A70C208487862F3C300C4
:104B3000487008BD10000020F8B50F460646002555
:104B40006A4604219020FFF72FF92E4C217860F35C
:104B5000000121702178420862F3470121706178D9
:104B6000000A60F3000161706178420862F341015C
:104B700061706178820862F382016170C1086078B7
:104B800061F3C300607000206946C0F103030A5C52
:104B9000DB009A40401CC0B215440428F5D377B31B
:104BA00035430020C0F10302D20025FA02F20A5474
:104BB000401CC0B20428F5D30A4604219020FFF718
:104BC000C3F9217860F3000121702178420862F373
:104BD000470121706178000A60F30001617061781B
:104BE000420862F3410161706178820862F38201D8
:104BF0006170C108607861F3C3006070F8BDFFE7C1
:104C0000B543CEE71000002008B56A460421FA201B
:104C1000FFF7CAF80F490A7860F300020A700A78B1
:104C2000430863F347020A704A78000A60F30002FF
:104C30004A704A78430863F341024A704A7883080D
:104C400063F382024A70C208487862F3C300487076
:104C500008BD00001000002008B50021009100B13F
:104C600001606A4604219020FFF76EF90F490A7827
:104C700060F300020A700A78430863F347020A707F
:104C80004A78000A60F300024A704A78430863F3E6
:104C900041024A704A78830863F382024A70C2086C
:104CA000487862F3C300487008BD0000100000207F
:104CB00038B504466A460421FA20FFF775F815490D
:104CC0000A7860F300020A700A78430863F3470227
:104CD0000A704A78000A60F300024A704A78430872
:104CE00063F341024A704A78830863F382024A7090
:104CF000C208487862F3C300487000204FEA0D01F3
:104D0000C0F10302401C8A5CC0B204F8012B0428E5
:104D1000F6D338BD1000002008B56A460121E7200F
:104D2000FFF742F811490A7860F300020A700A7826
:104D3000430863F347020A704A78000A60F30002EE
:104D40004A704A78430863F341024A704A788308FC
:104D500063F382024A70C208487862F3C300487065
:104D60009DF8000000F07F0008BD0000100000204A
:104D70002DE9F84306464A484A493044884201D85A
:104D800000240EE0484849493044884201D80124B3
:104D900007E0474847493044884201D8022400E0F0
:104DA000032400F0BFFD074600F02EFD054600F08D
:104DB00001FDF11905FB001500F0F4FD401C00F0A9
:104DC000FF08002C68D0012C64D0022C60D0032C8A
:104DD00006D1394861E0002000E00120FFF744FDE2
:104DE000284601F0D7F9814600F040FEFBF72FFD81
:104DF0000D46324907464FEA8840095D4843FBF7B4
:104E000015FD3A462B46FBF77DFC07460D4630461E
:104E1000FBF71DFD3A462B46FBF702FCFBF751FD65
:104E2000C0F3445242EA49118DF80010410B8DF84D
:104E3000011041098DF8021020496A46091F095DD9
:104E400041EAC0008DF8030004210820FFF77CF838
:104E50001B490A7860F300020A700A78430863F37A
:104E600047020A704A78000A60F300024A704A78E2
:104E7000430863F341024A704A78830863F382026D
:104E80004A70C208487862F3C3004870BDE8F883EE
:104E90000C4802E00C4800E00C4885429DD29AE79D
:104EA00080A9A0D160D9AC0A801BFEE8E08512057C
:104EB000409F2DEE2077FC02E2F49C0904120108C9
:104EC00010000020C4E93913068DA2190B1A4533CE
:104ED000024902220A70486070470000000000206A
:104EE0002DE9F04F4FF0000987B0C84600F0BEFD35
:104EF0004A4988420DD900F055FD50B94FF00109DB
:104F000000F0E2FC0446012001F0FEFA2046FFF723
:104F10002FFF00F0D9FC009025208DF80C0003AA8B
:104F20000121A120FFF710F80120FFF75FFD01F03C
:104F300083FB3B4C207840210325B1EB500F0BD174
:104F40004FF001086220FFF7A7FD00BF01F074FBDE
:104F50002078B5EB500FF9D16620FFF79DFD0026B4
:104F600013274FF00F0A00BF01F066FB2078B7EB64
:104F7000500F04D13046761CF6B205284CD021786B
:104F8000BAEB510FF0D1FFF743FC83466220FFF7E5
:104F900083FD00BF01F050FB2078B5EB500FF9D135
:104FA0006520FFF779FD002601F046FB2078B7EB7E
:104FB000500F04D13046761CF6B205282CD021784B
:104FC000BAEB510FF0D1FFF723FC06466220FFF742
:104FD00063FD00BF01F030FB2078B5EB500FF9D135
:104FE000B8F1000F02D06320FFF756FD0020FFF755
:104FF000FDFCB9F1000F05D0002001F085FA009802
:10500000FFF7B6FE5846FFF79FFC3046FFF74AFC15
:10501000002007B0BDE8F08F0120FAE780C3C90186
:105020001000002008B56A4601213020FEF7BCFEC2
:1050300012490A7860F300020A700A78430863F3A1
:1050400047020A704A78000A60F300024A704A7800
:10505000430863F341024A704A78830863F382028B
:105060004A70C208487862F3C30048709DF8000097
:1050700010F0180000D0012008BD00001000002032
:1050800038B50024FFF7CEFF00B1012400F0CAF9C3
:1050900004446A460221C920FEF786FE13490A78B5
:1050A00060F300020A700A78430863F347020A704B
:1050B0004A78000A60F300024A704A78430863F3B2
:1050C00041024A704A78830863F382024A70C20838
:1050D000487862F3C30048709DF801009DF8001005
:1050E00000EB0120001B80B238BD00001000002042
:1050F000F8B505466A4601215120FEF755FE824C5F
:10510000217860F3000121702178420862F34701A1
:1051100021706178000A60F30001617061784208D3
:1051200062F3410161706178820862F3820161700B
:10513000C108607861F3C30060709DF800006A46A2
:1051400020F0200040F001008DF8000001215120E6
:10515000FEF7FAFE217860F3000121702178420801
:1051600062F3470121706178000A60F30001617009
:105170006178420862F3410161706178820862F3EC
:1051800082016170C108607861F3C30060706A4693
:1051900001214F20FEF708FE217860F30001217005
:1051A0002178420862F3470121706178000A60F3B8
:1051B000000161706178420862F3410161706178B9
:1051C000820862F382016170C108607861F3C300F4
:1051D00060709DF800006A4620F030008DF80000F5
:1051E00001214F20FEF7B0FE217860F3000121700D
:1051F0002178420862F3470121706178000A60F368
:10520000000161706178420862F341016170617868
:10521000820862F382016170C108607861F3C300A3
:105220006070287B002601280BD08DF8006000BF3D
:105230009DF80000E97A08438DF80000687A20B1F3
:1052400005E008208DF80000F2E701206872C0B286
:10525000401E8DF80100287869780843297A0843B0
:105260008DF80200A87A8DF80300A97B012903D1EB
:1052700040F010008DF80300687B012805D19DF8EF
:10528000030040F001008DF803006A46042130203D
:10529000FEF75AFE0020032369466A78A3EB520208
:1052A000824201DD0E5403E06A68C700FA400A54E6
:1052B000401CC0B20428F0D3A87A00B1012000F04D
:1052C0005BF86A4604213620FEF73EFE217860F343
:1052D000000121702178420862F347012170617852
:1052E000000A60F3000161706178420862F34101D5
:1052F00061706178820862F382016170C108607830
:1053000061F3C3006070F8BD1000002038B5054699
:105310000024FFF787FE00B1012400F083F8011993
:1053200068188DF80100000A8DF800006A46022115
:105330003420FEF709FE0F490A7860F300020A7074
:105340000A78430863F347020A704A78000A60F358
:1053500000024A704A78430863F341024A704A786F
:10536000830863F382024A70C208487862F3C3007C
:10537000487038BD1000002038B505466A46012146
:105380004F20FEF711FD264C217860F300012170BB
:105390002178420862F3470121706178000A60F3C6
:1053A000000161706178420862F3410161706178C7
:1053B000820862F382016170C108607861F3C30002
:1053C00060709DF80000012D27D020F0010000BF83
:1053D0008DF800006A4601214F20FEF7B5FD2178C7
:1053E00060F3000121702178420862F347012170C7
:1053F0006178000A60F3000161706178420862F32D
:10540000410161706178820862F382016170C108B4
:10541000607861F3C300607038BD40F00100D7E7E9
:105420001000002008B56A4601213020FEF7BCFCC0
:1054300011490A7860F300020A700A78430863F39E
:1054400047020A704A78000A60F300024A704A78FC
:10545000430863F341024A704A78830863F3820287
:105460004A70C208487862F3C30048709DF8000093
:1054700000F0070008BD00001000002008B56A46D3
:105480000121C720FEF790FC10490A7860F3000262
:105490000A700A78430863F347020A704A78000AE0
:1054A00060F300024A704A78430863F341024A708D
:1054B0004A78830863F382024A70C208487862F32C
:1054C000C30048709DF80000000908BD10000020CE
:1054D00008B56A460121C820FEF766FC10490A7823
:1054E00060F300020A700A78430863F347020A7007
:1054F0004A78000A60F300024A704A78430863F36E
:1055000041024A704A78830863F382024A70C208F3
:10551000487862F3C30048709DF8000008BD0000A1
:105520001000002008B54000001D8DF800006A46FC
:1055300001212220FEF708FD0F490A7860F30002DE
:105540000A700A78430863F347020A704A78000A2F
:1055500060F300024A704A78430863F341024A70DC
:105560004A78830863F382024A70C208487862F37B
:10557000C300487008BD00001000002038B5054683
:105580006A4601213A20FEF70FFC244C217860F393
:10559000000121702178420862F34701217061788F
:1055A000000A60F3000161706178420862F3410112
:1055B00061706178820862F382016170C10860786D
:1055C00061F3C30060709DF800006A4600F03F0080
:1055D00028438DF8000001213A20FEF7B5FC217820
:1055E00060F3000121702178420862F347012170C5
:1055F0006178000A60F3000161706178420862F32B
:10560000410161706178820862F382016170C108B2
:10561000607861F3C300607038BD000010000020A6
:1056200038B505466A4601213A20FEF7BDFB264CF7
:10563000217860F3000121702178420862F347016C
:1056400021706178000A60F300016170617842089E
:1056500062F3410161706178820862F382016170D6
:10566000C108607861F3C30060709DF80000012DEF
:1056700027D020F0020000BF8DF800006A4601210B
:105680003A20FEF761FC217860F300012170217857
:10569000420862F3470121706178000A60F300015B
:1056A00061706178420862F341016170617882083B
:1056B00062F382016170C108607861F3C3006070B9
:1056C00038BD40F00200D7E71000002038B504468E
:1056D00000208DF800006A4601211E20FEF764FBC1
:1056E0009DF80000012C27D020F080008DF80000EC
:1056F0006A4601211E20FEF727FC11490A7860F353
:1057000000020A700A78430863F347020A704A7875
:10571000000A60F300024A704A78430863F34102CA
:105720004A704A78830863F382024A70C208487854
:1057300062F3C300487038BD40F08000D6E7000037
:105740001000002008B56A4601210B20FEF72CFB53
:1057500017490A7860F300020A700A78430863F375
:1057600047020A704A78000A60F300024A704A78D9
:10577000430863F341024A704A78830863F3820264
:105780004A70C208487862F3C30048709DF8000070
:1057900000F00700012805D0032805D0042805D013
:1057A000032008BD002008BD012008BD022008BD5F
:1057B0001000002008B56A4601216C20FEF7F4FABB
:1057C00010490A7860F300020A700A78430863F30C
:1057D00047020A704A78000A60F300024A704A7869
:1057E000430863F341024A704A78830863F38202F4
:1057F0004A70C208487862F3C30048709DF8000000
:1058000008BD00001000002008B56A4601210C20E8
:10581000FEF7CAFA12490A7860F300020A700A78A1
:10582000430863F347020A704A78000A60F30002F3
:105830004A704A78430863F341024A704A78830801
:1058400063F382024A70C208487862F3C30048706A
:1058500004499DF8000049684843C00B08BD00009A
:10586000100000200800002008B56A460121B4207D
:10587000FEF79AFA13490A7860F300020A700A7870
:10588000430863F347020A704A78000A60F3000293
:105890004A704A78430863F341024A704A788308A1
:1058A00063F382024A70C208487862F3C30048700A
:1058B0009DF80000C008C00701D0002008BD0120ED
:1058C00008BD00001000002070B500F097F80446F5
:1058D000FFF738FF054600F065F81049401C000648
:1058E000495D80094843FAF7A1FF06460C480D467A
:1058F0004068FAF7ACFF32462B46FAF703FF06463C
:105900000D462046FAF7A3FF32462B46FAF788FEEB
:1059100007F016F8BDE87040FAF7D3BF0812010887
:105920000800002008B56A4602210E20FEF73CFA66
:105930001A490A7860F300020A700A78430863F390
:1059400047020A704A78000A60F300024A704A78F7
:10595000430863F341024A704A78830863F3820282
:105960004A70C208487862F3C30048709DF801008D
:105970009DF8001000EB012080B2010502D540F433
:10598000704001E0C0F30B00054900B2496848438C
:10599000C11700EB9130801408BD000010000020FA
:1059A0000800002008B56A4601219E20FEF7FCF998
:1059B00011490A7860F300020A700A78430863F319
:1059C00047020A704A78000A60F300024A704A7877
:1059D000430863F341024A704A78830863F3820202
:1059E0004A70C208487862F3C30048709DF800000E
:1059F000C00900D0012008BD1000002008B56A468B
:105A000004210820FEF7D0F917490A7860F3000254
:105A10000A700A78430863F347020A704A78000A5A
:105A200060F300024A704A78430863F341024A7007
:105A30004A78830863F382024A70C208487862F3A6
:105A4000C30048709DF800009DF80110C006800951
:105A500000EB41309DF8021000EB41109DF803105F
:105A600000EBD10008BD0000100000200148406894
:105A700070470000080000202DE9F04789463249B0
:105A8000324A0144914205D831490024884215D256
:105A9000012413E02F49304A0144914201D80224E5
:105AA0000CE02E492E4A0144914201D8032405E01E
:105AB0002C4908442C49884200D804242B4D04EB7F
:105AC000440005EBC0000126D0E90270B9F5000FD3
:105AD00039460FDBFAF7B3FC804639462448FAF71B
