:020000040800F2
:10000000E04C002039010008CB39000837390008DE
:10001000C93900086D140008CD6A0008000000000E
:100020000000000000000000000000008541000802
:10003000E714000800000000ED390008F561000831
:10004000CF6A00085301000853010008530100085B
:100050005301000853010008411800085D1800080A
:1000600071180008851800085301000853010008A2
:100070005301000853010008530100085301000810
:100080005301000853010008530100085301000800
:100090005301000853010008530100089918000893
:1000A00053010008530100085301000853010008E0
:1000B000E1620008530100085301000853010008E1
:1000C00053010008530100085301000853010008C0
:1000D0005301000853010008D169000853010008CA
:1000E0005518000853010008530100085301000887
:1000F00053010008000000005301000853010008EC
:100100009D640008530100085301000853010008D2
:10011000B11400085301000853010008000000005A
:1001200053010008DFF80CD000F0F0FE0048004753
:100130002DAD0008E04C00200648804706480047E7
:10014000FEE7FEE7FEE7FEE7FEE7FEE7FEE7FEE787
:10015000FEE7FEE791620008250100082DE9F05F47
:100160000546002092469B46884606468146402426
:100170001BE0284641464746224600F022FD5346F2
:100180005A46C01A914110D311461846224600F033
:1001900009FD2D1A67EB01084F4622460120002178
:1001A00000F000FD17EB00094E41201EA4F10104F0
:1001B000DFDC484631462A464346BDE8F09F000052
:1001C0000649074A0868504343F239021044086060
:1001D0004008704701490860704700002C04002067
:1001E0006D4EC64110B5431A934209D28318881840
:1001F00003E010F8011D03F8011D521EF9D210BDD5
:1002000040EA01039B0703D009E008C9121F08C098
:10021000042AFAD203E011F8013B00F8013B521E18
:10022000F9D210BDD2B201E000F8012B491EFBD279
:1002300070470022F6E710B513460A4604461946F1
:10024000FFF7F0FF204610BD30B505462A460B46A5
:1002500012F8010B13F8014B08B1A042F8D01CB101
:10026000002802D06D1CF1E7284630BD10B50446C9
:1002700004E00B7800F8013B03B1491C521EF8D290
:10028000204610BDCAB2401E10F8011F8A4202D09B
:100290000029F9D100207047421C10F8011B0029E9
:1002A000FBD1801A704730B504460020034600E0B9
:1002B0005B1C934203D2E05CCD5C401BF8D030BDA8
:1002C000034611F8012B00F8012B002AF9D118463A
:1002D000704730B505460020034600E05B1C9342A2
:1002E00005D2EC5CC85C201A01D1002CF6D130BDDF
:1002F00070B50F4D00B92868002412E00A4602E0EC
:100300009E4203D0521C1378002BF9D1DAB222435B
:1003100005D02BB124B1002100F8011B04E00446F4
:10032000401C0678002EE9D12860204670BD0000F0
:10033000300400200FB400B58DB010A909900B90C7
:1003400000914FF0FF300A9000200C900548069075
:10035000054807906A4609A80F9900F069FC0DB09E
:100360005DF814FB4D0C00086B0C00082DE9FF5FD5
:100370001D464FF0FF3BD5E9014691465F464FF0E1
:100380000008A9697F1C01988847296A8246884726
:100390000028F6D1BAF1FF3F0CD024F4C064002E3F
:1003A00019DD600614D5BAF12B0F09D0BAF12D0F63
:1003B0000ED103E0584604B0BDE8F09F44F48064D9
:1003C000A9697F1C01988847761E8246002E02DDAF
:1003D000BAF1300F03D0B9F1000F26D032E0A9698D
:1003E000761E44F400747F1C019888478246002ED4
:1003F00005DDBAF1780F06D0BAF1580F03D0B9F184
:10040000000F10D01EE0B9F1000F02D0B9F1100FAB
:1004100018D1A969761E24F400747F1C01988847BE
:100420008246102002E0082000E00A20814609E010
:1004300008FB0908A969761E44F400747F1C019822
:1004400088478246002E05DD4946504600F0DBFB1A
:100450000028EDDAE96901988847A00502D46FF019
:100460000100A8E7E00725D1600613D5600502D595
:10047000C8F1000000E0404629680A1D2A600968AA
:10048000220501D5087015E0220701D5088011E08A
:1004900008600FE02868011D29600068210502D569
:1004A00080F8008006E0210702D5A0F8008001E076
:1004B000C0F8008038467EE72DE9FF5FD2E901A74A
:1004C0004FF00008916999461446DDF838B0464669
:1004D00001988847054659EA0B0005D009E0A16953
:1004E000761C019888470546216A284688470028D7
:1004F000F5D1681C03D05FEACA7005D015E04FF053
:10050000FF3004B0BDE8F09F2068011D2160D0F8E5
:1005100000800AE05FEACA7001D108F8015BA169B6
:10052000761C7F1E019888470546002F1ADD681C3F
:1005300018D0B9F1000F0DD0E81705EBD0604211CB
:1005400020F01F0059F822102A1A01209040014281
:10055000E0D107E0BBF1000FDCD1216A28468847D3
:100560000028D7D0E16901988847BBF1000F07D177
:10057000002E05DD5FEACA7002D1002188F8001064
:10058000A068B84203DDBBF1000F03D017B16FF0D4
:100590000100B6E73046B4E770B5064607F02EFA1C
:1005A000046805460A220021304600F06FFB2C60EB
:1005B00070BDF0B480EA0102D40F4200B2EB410FEB
:1005C00002D20246084611464A0042D0C30DDDB2AF
:1005D000C1F3C752AD1A202D35DAC1F3160141F42B
:1005E000000204B15242C5F1200602FA06F12A4186
:1005F0001044B3EBD05F23D0C4B1012DA0EBC350A6
:1006000009DCF0BC4FF0004202EAC352DBB200F555
:10061000000000F07CBB400000F1807000EBC35094
:10062000A0F1807040EAD170490009E0490841EA30
:10063000C071A0EBC35000F50000400800EBC350B0
:10064000F0BC00F05BBB6142012202EB4101001BE8
:10065000F6E7F0BC704781F00041AAE780F0004067
:10066000A7E780EA010210B502F00043400022D063
:100670004A001FD0010E01EB1261C0F35600C2F315
:10068000560240F4000042F40002A0FB02200004E5
:100690007F39140400D0401C50EA124001D44000BD
:1006A000491EC2B20C0604EBD010401C4008802A40
:1006B00002D003E0002010BD20F00100002900DA84
:1006C0000020184310BD30B480EA010202F000455A
:1006D00030F0004221F0004013D090B1C30DD40D92
:1006E000C2F31601C0F31600E41A41F4000140F40D
:1006F00000027D34914201D3641C00E04900002CCB
:1007000002DA30BC002070474FF400000023914211
:1007100001D3891A034340084FEA4101F7D151B18F
:10072000914202D14FF0004105E002D24FF00101A9
:1007300001E06FF0010103EBC450284430BC00F02D
:10074000DDBA420005D0C0F3C7525242914201DCEB
:100750000020704700EBC15070472DE9FE4F8046E6
:1007600081EA0300C00F0C46009021F0004123F005
:100770000045B8EB0200A94105D24046214690460B
:100780001C460B46024623F00040104347D0270D7D
:10079000C7F30A00C3F30A510290401A019040289F
:1007A0006BDAC3F3130040F4801B0098924620B12B
:1007B0000023D2EB030A63EB0B0B01985946C0F1FF
:1007C0004002504600F0EEF906460D4650465946A6
:1007D000019A00F006FA10EB08006141002487EA54
:1007E000115284EAE7731A4340D0009A62B3019A27
:1007F000012A4FEA075215DC001B61EB02014FF0A2
:10080000004202EA0752CDE90042001C41F5801186
:1008100032462B4600F0B8FA03B0BDE8F08F4046F0
:100820002146F9E7001B61EB0201001C41F5801332
:1008300000185B412018A2F5001747EB030140EABE
:10084000D570B6196D4111E06D084FEA360645EADC
:10085000C0754FEA0752001B61EB0201001C41F515
:10086000801149084FEA30000019514132462B46A9
:1008700003B0BDE8F04F00F078BA009801224000C4
:100880000023D0EB020263EBE073009821464FEAAD
:10089000E074B8EB000061EB0401E9E783F000438A
:1008A0005BE781F0004158E72DE9FE4F81EA030440
:1008B00004F0004421F0004100944FF0000B23F0BD
:1008C000004350EA01045ED052EA03045BD0C3F354
:1008D0000A54C1F30A552C44A4F2F3340194A0FB4A
:1008E0000254C1F3130141F48011C3F3130343F421
:1008F000801301FB024400FB034E840A970A44EA7A
:10090000815447EA8357A4FB076802958D0A05FBCB
:1009100007854FEA932C04FB0C542705029D4FEAF0
:10092000065847EA1637B5EB08056EEB070C870E3D
:10093000920E47EA811742EA8312A7FB0201B6EB47
:100940000B0164EB00042B0D43EA0C335E1844EBFF
:100950001C50DA465146E7FB0201C5F313044FEA87
:100960000B3343EA14534FEA0432019C43EA060373
:10097000A4F10C040294009CCDE900B400F004FA48
:1009800003B0BDE8F08F00200146F9E72DE9F04DF6
:1009900081EA030404F0004B21F0004514464FF0B7
:1009A000000A23F0004150EA050220D054EA010277
:1009B0001DD0C5F30A570246C5F31303C1F3130054
:1009C000C1F30A5640F4801543F48013A7EB0608E0
:1009D000101BD64608F2FD3873EB050002D308F170
:1009E000010801E092185B41B8F1000F03DA002022
:1009F0000146BDE8F08D00204FF480110646844684
:100A00000EE0171B73EB050705D3121B63EB050301
:100A100006434CEA010C49084FEA300092185B414A
:100A200050EA0107EDD152EA030012D082EA040035
:100A300083EA0501084305D0101BAB4106D2012211
:100A4000002306E000224FF0004302E06FF00102B5
:100A500053101AEB06004CEB085110EB0A0041EB67
:100A60000B01BDE8F04D00F080B970B521F00043F6
:100A700003430CD0C1F30A550024D5EB040564EB05
:100A80000403D617AD1AB34102DB0020014670BD46
:100A9000201841EB025170BDC10F80EAE07008449C
:100AA000CA079623002100F032B99623002211468E
:100AB00000F02DB90EB5C10F80EAE0700844CA07F6
:100AC000002140F233438DE80E000A460B4600F049
:100AD0005BF903B000BD0EB540F233410291002135
:100AE000CDE900110A460B4600F04EF903B000BDF7
:100AF00000F0004220F00040C10DC0F3160040F4A9
:100B000000007F2901DA00207047962903DCC1F13B
:100B10009601C84001E096398840002AF4D040424E
:100B2000704720F00040C10DC0F3160040F40000F3
:100B30007F2901DA00207047962903DCC1F1960174
:100B4000C8407047963988407047C1F30A5210B5C3
:100B5000C1F3130140F2FF3341F480119A4201DAEC
:100B6000002010BD40F233439A42A2F2334203DC2C
:100B7000524200F026F810BD904010BD002801DB65
:100B8000C0F10040002901DBC1F100418142704702
:100B9000002801DBC0F10040002901DBC1F1004168
:100BA00088427047202A04DB203A00FA02F1002034
:100BB00070479140C2F1200320FA03F3194390409B
:100BC0007047202A04DB203A21FA02F00021704706
:100BD00021FA02F3D040C2F12002914008431946A5
:100BE0007047202A06DBCB17203A41FA02F043EA8D
:100BF000E07306E041FA02F3D040C2F120029140D6
:100C00000843194670473A2800D2303820F02002B5
:100C1000412A01D3A2F13700884201D34FF0FF30BF
:100C2000704700000268114413780160184670474D
:100C3000D1600449516104491162002111611146DA
:100C400000F084B9250C0008390F0008426842B151
:100C5000016811F8013B23B1521EC0E90012184689
:100C600070470121C160881E704742685AB1C3684D
:100C7000016843B983688B4205D0491E521CC0E904
:100C80000012002070474FF0FF3070472DE9F04709
:100C900091460F4680460446002614F8015B2DB1AC
:100CA00000F046F90068405DC007F6D12B2D02D058
:100CB0002D2D18D0641E4A463946204600F0DCFA35
:100CC00027B13968A14201D1C7F8008071054FF002
:100CD00002040BD54042002803DD06F08FFE0460BD
:100CE000A007BDE8F08746F48066E4E70028F8DA5C
:100CF00006F084FE04606FF00040F2E70029A8BF10
:100D00007047401C490008BF20F00100704710B434
:100D1000B0FA80FC00FA0CF050EA010404BF10BCE9
:100D2000704749B1CCF1200421FA04F411FA0CF116
:100D300018BF012121430843A3EB0C01CB1D4FEA4F
:100D400000614FEA102042BF002010BC704700EB4A
:100D5000C35010440029A4BF10BC7047401C490078
:100D600008BF20F0010010BC704710B5141E73F1CD
:100D7000000408DA401C41F1000192185B411A435B
:100D800001D120F0010010BD2DE9F04D92469B46A7
:100D900011B1B1FA81F202E0B0FA80F2203290464D
:100DA000FFF700FF04460F4640EA0A0041EA0B0144
:100DB00053465A46084313D0114653EA010019D04E
:100DC000C8F140025046FFF7FCFE05460E4650466D
:100DD00059464246FFF7E6FE084305D0012004E0ED
:100DE00020463946BDE8F08D0020054346EAE0760E
:100DF0002C4337430A986305E40AA0EB080000225D
:100E0000FD0A44EA47540A3002D500200146E9E7CA
:100E1000010510196941DDE9084500196941BDE87E
:100E2000F04DA2E72DE9F041054621F000400C46C7
:100E3000284309D0C4F30A5040F23341884205DD0B
:100E400028462146BDE8F0812846FBE740F2FE3106
:100E5000884210DC0CDB4FEA043040EA155050EABF
:100E6000053105D0104804F0004101430020E9E7B6
:100E700000200146E6E7A0F233404642C6F14002B8
:100E800028462146FFF78EFE07468846284621461B
:100E90003246FFF796FE43463A46FFF766FF324674
:100EA000BDE8F041FFF77EBE0000F03F30B5041E04
:100EB00071F1000404DB4FF00044404264EB010197
:100EC000141E73F1000405DB1C464FF00043524230
:100ED00063EB04038B4208BF824230BD30B5041E71
:100EE00071F1000404DB4FF00044404264EB010167
:100EF000141E73F1000405DB1C464FF00043524200
:100F000063EB0403994208BF904230BD064C074D85
:100F100006E0E06840F0010394E8070098471034C9
:100F2000AC42F6D3FFF702F99C1C0108BC1C010877
:100F300000487047301A010810B50446FFF7F8FF63
:100F40000068005D00F0010010BD00002DE9F34FC6
:100F50008BB04FF0000801F10C000C464FF0010B74
:100F600046460DF1080A01906269012101989047F7
:100F7000051E2DD0252D2CD0216A8847C0B162696D
:100F8000012101989047216A88470028F7D1411E26
:100F900062690198904700E0761CA1690B98884728
:100FA000216A88470028F7D1E1690B988847DBE779
:100FB000A1690B9888470746A84201D1761CD3E760
:100FC000E1690B9888477F1C02D1B8F1000F6FD000
:100FD00046E1002762693D463946019890472A2834
:100FE00004D162690121019890470125DFF88492BC
:100FF0006269012101989047A0F130010A290AD2C3
:101000004F45E5DC07EB870100EB4107303FDFD4BC
:1010100045F01005ECE7E90601D46FF000476C28B5
:101020000AD04C2814D0682815D06A280DD074280E
:101030001CD07A281AD01DE06269012101989047DE
:101040006C2802D045F0040514E045F002050DE0DF
:1010500045F020050AE0626901210198904768285F
:1010600002D045F0080505E045F4006562690121FC
:1010700001989047C4E9015765283DD019DC5828EC
:101080007AD00CDC452837D004DC252826D041282E
:1010900031D131E046282FD047282CD12CE05B28D5
:1010A00077D0612828D063287CD0642823D15AE0E7
:1010B000D0E06F2848D008DC66281DD067281BD0F8
:1010C000692821D06E2816D127E0702845D07328D2
:1010D00068D0752847D078280DD14DE0A1690B98CC
:1010E0008847054625283FF469AFE1690B98884792
:1010F0006D1C3FF46AAFB3E023466A466FF001000F
:101100000B99AFF300809EE045F040006060A807B7
:1011100023464FF0000236D43EE0E8077FF447AFA5
:101120002068011D21600068290501D506701BE7B4
:10113000290701D5068017E7A90703D5F117C0E9EC
:10114000006111E706600FE745F040006060A80706
:1011500023464FF0080216D41EE040F60E0125EAA1
:101160000100606016E045F040006060A80723467B
:101170004FF00A0207D40FE045F040006060A80776
:1011800008D5234610226FF001000B99AFF30080C1
:1011900059E007E0234610226FF001000B99FFF79A
:1011A000E5F850E04FF000094F464B46632802D067
:1011B0005B2806D040E0E80601D40120A0600127AA
:1011C0003AE062690121019890475E2805D14FF00D
:1011D00001096269494601989047216939B900219E
:1011E0000A46534643F82120491C0829FADBB0B3CC
:1011F000216969B9C11700EBD16253110AEB830170
:1012000022F01F02821A01200B68904003430B60FA
:1012100062690121019890475D28E8D1B9F1000F7A
:1012200009D00020514651F82020D24341F8202017
:10123000401C0828F7DB02AB224600976FF0010044
:101240000B99FFF739F900280CDA401C08D1BBF1E3
:10125000000F05D04FF0FF300DB0BDE8F08FFFE775
:101260004046F9E7E90701D108F1010806444FF0CB
:10127000000B79E6CCCCCC0C2DE9F05F82460078EF
:10128000002715468B460AF10104B946302801D0E3
:101290009DB113E014F8010B0127782803D05828DA
:1012A00001D045B10AE00DB1102D07D1002710255E
:1012B00014F8010B02E0082500E00A250026B046DC
:1012C0000EE005FB080005FB06F1012701EB1046C7
:1012D0001FFA80F8B6F5803F00D3B94614F8010B29
:1012E0002946FFF790FC0028EBDABBF1000F05D090
:1012F0000FB1641E00E05446CBF80040B9F1000F76
:1013000006D006F07BFB02210160C81EBDE8F09FFD
:1013100048EA0640FAE770B58C1810F8015B15F042
:10132000070301D110F8013B2A1106D110F8012B57
:1013300003E010F8016B01F8016B5B1EF9D12B077C
:1013400005D40023521E0DD401F8013BFAE710F832
:10135000013BCB1A921C03E013F8015B01F8015B1F
:10136000521EF9D5A142D8D3002070BD70B586B009
:10137000040008D11048016841F0010101600068D3
:1013800000F0010005900D4E0D4D694636F8140031
:10139000009001200190002002900220039055F857
:1013A000240000F0ABFB36F8141055F8240000229E
:1013B00000F085FC06B070BD1C3802403A170108E9
:1013C000140000200349044A31F8101052F820009C
:1013D00000F071BC3A170108140000200349044AC8
:1013E00031F8101052F8200000F060BC3C170108E2
:1013F0001800002030B587B0040008D117480268F3
:1014000042F004020260006800F0040005901448F5
:1014100030F81400009000200122CDE90202114AA8
:10142000A1B1012910D11048019052F82400694659
:1014300000F064FB0A4D00222D1F0F21285700F0F9
:10144000AFFC285700F0A1FC07B030BD019052F866
:101450002400694600F052FBF6E700001C38024009
:101460003C1701081800002000002110FEE70000D2
:101470000D4810B50168491C016000684FF47A718D
:10148000B0FBF1F201FB120028B908480168491CC1
:10149000016008F08FF808F099F8002803D0BDE843
:1014A000104008F09BB810BDC0030020BC03002012
:1014B000014800F033BA00003006002030B590F843
:1014C00040500124AC40C56B6C60046863604368A5
:1014D000102B036803D099600068C26030BD9A6029
:1014E0000068C16030BD704710B502F043FABDE836
:1014F000104005F0EFBB00002DE9F041DCB091F8A1
:1015000000800D460646002450AF325D3A55214614
:1015100059A006F03BFA641C102CF6DB6C785BA03B
:1015200000F080F94FF4FA7000F0C6FA9DF84C0113
:101530000CAE9DF84F319DF84E219DF84D1186E877
:101540000F009DF8480108AE9DF84B319DF84A21E7
:101550009DF8491186E80F009DF8440104AE9DF8FE
:1015600047319DF846219DF8451186E80F009DF80A
:1015700040019DF843319DF842219DF841118DE8CD
:101580000F00234642464FA111A806F023FA11A8E6
:10159000FEF782FEC5B25BA111A806F01BFA11AAE4
:1015A0005AA1104606F016FA11AA64A1104606F0D8
:1015B00011FA11AA65A1104606F00CFA11AA6DA144
:1015C000104606F007FA11AA2B4677A1104606F03E
:1015D00001FA9DF84C010DAE9DF84F319DF84E215A
:1015E0009DF84D1186E80F009DF8480109AE9DF861
:1015F0004B319DF84A219DF8491186E80F009DF86E
:10160000440105AE9DF847319DF846219DF84511EE
:1016100086E80F009DF843019DF842219DF8411195
:101620009DF840310094CDE90131CDE9032011AAA4
:10163000434664A1104606F0CDF911A8FEF72CFE32
:10164000C4B211A96FA006F0A1F9224671A154A855
:1016500006F0C0F954A800F0E5F84FF47A7000F0F5
:101660002BFA11A800F0DEF841F2707000F024FAB5
:101670005CB0BDE8F08100006974683A2025642000
:1016800069703A2578200D0A0000000041542B4370
:10169000495053544152543D22544350222C2277F6
:1016A000656C6C2D656C656374726F6E6963732E07
:1016B00061737573636F6D6D2E636F6D222C38309F
:1016C0000D0A000074656D703D2564265F68756DB8
:1016D00069646974793D2564265F6D61633D257891
:1016E0002578257825782578257825782578257812
:1016F0002578257825782578257825782578200D72
:101700000A000000504F5354000000002573202FA2
:10171000746573745F7365727665722F7465737424
:101720005F73656E645F646174612E7068702048D9
:101730005454502F312E310D0A000000257341639F
:10174000636570743A202F0D0A0000002573486FFE
:1017500073743A2077656C6C2D656C656374726F79
:101760006E6963732E61737573636F6D6D2E636F36
:101770006D0D0A002573436F6E74656E742D547978
:1017800070653A206170706C69636174696F6E2F67
:10179000782D7777772D666F726D2D75726C656E0B
:1017A000636F6465640D0A002573436F6E74656E24
:1017B000742D4C656E6774683A2025640D0A0D0A15
:1017C00000000000257374656D703D2564265F6818
:1017D000756D69646974793D2564265F6D61633D4B
:1017E0002578257825782578257825782578257811
:1017F0002578257825782578257825782578257801
:1018000000000000776562206275666665723A25A1
:1018100073200A0041542B43495053454E443D2503
:10182000640D0A0010B50446FEF736FD214682B26B
:10183000BDE81040C823014802F016B8F0050020AA
:1018400003480168C90701D001210160FEE70000DB
:10185000140401404FF4005000F044B903480168FB
:10186000890701D502210160FEE700001404014050
:1018700003480168490701D504210160FEE7000023
:101880001404014003480168090701D508210160DB
:10189000FEE700001404014070B50B4C20684FF0C7
:1018A0008005000605D52560802000F011F90DF0B7
:1018B00061F94FF4007020604010206025604020E6
:1018C00020602020206070BD140401400020FFF73C
:1018D00079FDFA2000F0F0F8F8E7000002484168CE
:1018E00041F0020141607047002004E001680A688D
:1018F00022F00E020A6001680A6822F001020A6002
:1019000090F84020C36B012101FA02F25A6080F87E
:101910002110002180F8201008467047F0B4C16BF8
:101920000D6801680C68066C042202FA06F32B426B
:101930000FD063070DD50B689B0603D40B6823F00B
:1019400004030B6090F840108A40C16B4A60C16A82
:101950001BE0022303FA06F72F424FF0000C4FF072
:10196000010216D0A70714D50C68A40605D40C688C
:1019700024F00A040C6080F8212090F840108B407D
:10198000C16B4B6080F820C0816A002918D0F0BC80
:1019900008470823B3402B4212D0230710D50B6809
:1019A00023F00E030B6090F84010C36B02FA01F1B4
:1019B0005960826380F8212080F820C0016BE4E741
:1019C000F0BC704730B560B11C4A036814219342E3
:1019D00009D21B4A1A44B2FBF1F18900016419498A
:1019E0000AE0012030BD154A52421A44B2FBF1F11F
:1019F0008900016411490839C163022180F821106E
:101A00001A6843F6F0718A43F0E901142143D0E9E2
:101A100002452C43214304692143446921438469DD
:101A2000214311431960002141628162C162016357
:101A30004163012242770177084630BD08640240C5
:101A4000F89FFDBF0060024070B5044690F820008A
:101A5000002501280CD0012084F8200094F8216092
:101A60000020012E06D084F820000225284670BDF3
:101A7000022070BD022684F82160A06320680668F9
:101A800026F0010606602046FFF718FDE06A0028F0
:101A90002068016802D041F00E0106E021F0040147
:101AA00001602068016841F00A0101602068016856
:101AB00041F001010160D9E731B500F005F90446B4
:101AC00000F002F90099001B8842F9D338BD0000EC
:101AD000B0F5005F02D102480CF062BC7047000014
:101AE00024190108044910B50A68024202D00860AE
:101AF000FFF7EEFF10BD0000140401402DE9F84F80
:101B0000DFF880B100234FF0010C4FF0030A4FF0D3
:101B10000F090BF1040EAEE00CFA03F614EA06020C
:101B200070D04C68022C01D0122C11D1DC0800EBD3
:101B300084073C6A5D07ED0E09FA05F824EA0804FB
:101B4000D1F8108008FA05F848EA0408C7F82080A0
:101B500007685D0091F804800AFA05F408F00308AC
:101B6000A74308FA05F848EA0708C0F800804F685C
:101B7000012F05D0022F03D0112F01D0122F11D128
:101B80008768D1F80C80A74308FA05F848EA0708E7
:101B9000C0F808804768B7430E79C6F300169E4028
:101BA0003E434660C668A6438C68AC403443C4607C
:101BB0004C68E4005ED5344C256845F0010525608D
:101BC000246823F0030504F0010400942F4C2E191F
:101BD000B4689D072F0F09FA07F5AC432C4DA842B6
:101BE00001D100251FE02B4DA84201D101251AE0AB
:101BF000294DA84201D1022515E0284DA84202D165
:101C0000032510E036E0264DA84201D104250AE064
:101C1000244DA84201D1052505E0234DA84201D15C
:101C2000062500E00725BD402543B560DBF80040F0
:101C30005D464E689443F60300D514432C60DEF8ED
:101C4000004075464E689443B60300D514432C609B
:101C50000C4D08352C684E689443F60200D51443A9
:101C60002C60084D0C352C684E689443B60200D5A4
:101C700014432C605B1C0A681446DA407FF44CAFB6
:101C8000BDE8F88F00040140203802400000014008
:101C9000000002400004024000080240000C024024
:101CA0000010024000140240001802400069084081
:101CB00000D00120704742694A40426170470AB132
:101CC000816170470904FBE7014800687047000024
:101CD0004000002002480168491C01607047000074
:101CE00040000020094810B5016841F0040101607E
:101CF000016841F002010160032000F071F80F203B
:101D000000F006F800F018F8002010BD003C02407A
:101D100010B5044607484FF47A710068B0FBF1F043
:101D200001F080FA00222146501E00F039F8002010
:101D300010BD00003C0000200D4808B5016841F0CE
:101D400001010160016801F001010091016841F0A9
:101D500004010160016801F004010091016841F093
:101D600008010160006800F00800009008BD000054
:101D70001C38024000F01F02012191404009800000
:101D800000F1E020C0F88011704700F01F0201212F
:101D900091404009800000F1E020C0F80011704738
:101DA000F0B40E4B1B680C46C3F30223C3F10705C6
:101DB000042D00D90425191D072901D2002300E0B4
:101DC000DB1E012606FA05F1491E214099409E407E
:101DD000761E16403143F0BC01F0F8BD0CED00E07A
:101DE000064900F0070208684FF6FF03184040EA72
:101DF0000220034A10430860704700000CED00E029
:101E00000000FA052DE9F84F04460068C10701D12A
:101E1000800778D5DFF868810027D8F80000C00077
:101E20000BD4D8F8001041F08051C8F80010D8F851
:101E30000000012700F080500090524D2868C00536
:101E400010D4286840F480702860FFF73DFF0646F4
:101E500005E000BFFFF738FF801B64285CD82868C6
:101E6000C005F7D5464E243E3068616800F0C0409A
:101E700001F0C042824204D1A26802F0C042824214
:101E800009D0C1F30140032805D13068800302D591
:101E90000120BDE8F88F3A4D1035286810F4403025
:101EA00052D001F44031814202D02178C90707D1D4
:101EB000A16801F44031814246D02078800743D5A3
:101EC00028684FF4000292FAA2F1B1FA81F14FEAC8
:101ED000810C2D494FF0010A8C4420F44030CCF89D
:101EE00080A692FAA2F2B2FA82F201EB82010023FA
:101EF000C1F880362860C00526D5FFF7E5FE81468B
:101F00004FF4007B0AE038E0FFF7DEFEA0EB0901AA
:101F100041F28830814201D90320BAE79BFAABF045
:101F2000B0FA80F040F04001BAEB511F01D13168A6
:101F300000E029689BFAABF2B2FA82F202F01F02CB
:101F40000AFA02F00142DFD06068C0F301410329C0
:101F500006D1316800F0C04021F0C041014331603A
:101F60002868616801F44031084328602FB1D8F82F
:101F7000001021F08051C8F80010002089E700000F
:101F80002438024000700040000047422DE9F0472D
:101F9000DFF8BC8105460E46D8F8000000F00100CD
:101FA000B04214D2012E05D1D8F8001041F004013E
:101FB000C8F80010D8F8001021F001013143C8F82A
:101FC0000010D8F8000000F00100B04271D128786C
:101FD000604C800705D52068A96820F0F000084310
:101FE00020602878C00771D05A4A5A4B696801208E
:101FF000083A2C33022910D003292ED001292FD0E2
:102000005FEA402797FAA7FCBCFA8CFC4CF0200C46
:102010005FEA5C1C04D0126803E04FF40037F1E77C
:102020001A6897FAA7F3B3FA83F303F01F039840F3
:10203000024262D0206820F0030008432060FFF7CE
:1020400043FE6968074641F28830022910D003290F
:102050001CD00129814626D034E04FF00077D1E72B
:102060000227CFE7FFF730FEC11B494501D926E023
:1020700081462068C0F381000228F3D126E000BF2A
:10208000FFF722FEC11B494501D918E081462068AF
:10209000C0F381000328F3D118E000BFFFF714FE5E
:1020A000C11B49450BD82068C0F381000128F5D138
:1020B0000CE022E0FFF708FEC11B494502D90320CE
:1020C000BDE8F087206810F00C0FF3D1D8F80010AD
:1020D000404601F00101B14211D9012E03D101683E
:1020E00041F004010160016821F001013143016008
:1020F000006800F00100B04201D00120E0E728783C
:10210000400705D52068E96820F4E06008432060B6
:102110002878000706D52068296920F4605040EA35
:10212000C100206000F052F82168F02292FAA2F279
:1021300001F0F001B2FA82F2D140074A515CC84086
:10214000064908600F20FFF7E3FD0020B8E7000014
:10215000003C024008380240931701083C00002070
:1021600001480068704700003C0000200848094909
:10217000006809684FF4E06292FAA2F201F4E061AB
:10218000B2FA82F2D140044A515CC8407047000064
:102190003C00002008380240A317010808480949FC
:1021A000006809684FF4605292FAA2F201F460519B
:1021B000B2FA82F2D140044A515CC8407047000034
:1021C0003C00002008380240A31701081E4A11688D
:1021D00001F00C00042813D0082813D00C2813D0C9
:1021E000101F006800F460414FF4604090FAA0F0C6
:1021F000B0FA80F0C1404FF40040491C884070475D
:1022000012487047124870474FF4701393FAA3F3C3
:1022100001F47010B3FA83F3D8400E4B01F440017F
:102220001268185C4FF4400393FAA3F3B3FA83F3F4
:10223000D940491CD20301D5054A00E0034A504366
:10224000B0FBF1F070470000083802400024F400B1
:102250000048E8018A1701082DE9F84F0746007881
:10226000FE4EFF4DC0074FF0010428D0FB48083058
:1022700001684FF40038C1F38101022907D00168D9
:10228000C1F3810103291BD10068C00318D598FA56
:10229000A8F0B0FA80F040F02000400901D030688A
:1022A00000E0286898FAA8F1B1FA81F101F01F0165
:1022B00004FA01F1084260D0786800287ED05CE022
:1022C000786801280AD008B1052813D0306820F4B6
:1022D00080303060306820F4802002E0306840F4C4
:1022E00080303060786838B3FFF7EEFC814641F209
:1022F000883A0BE0306840F480203060EEE700BFA1
:10230000FFF7E2FCA0EB0901514575D898FAA8F057
:10231000B0FA80F040F02000400901D0306800E0C1
:10232000286898FAA8F1B1FA81F101F01F0104FAC6
:1023300001F10842E4D020E0FFF7C6FC814641F2FB
:10234000883A05E0FFF7C0FCA0EB09015145DCD855
:1023500098FAA8F0B0FA80F040F02000400901D0CF
:10236000306800E0286898FAA8F1B1FA81F101F02C
:102370001F0104FA01F10842E4D13878DFF8E48261
:1023800080074FF0000B4FF0020961D5B3480830C9
:102390000168C1F38101012907D00168C1F38101FE
:1023A00003291DD10068C0031AD499FAA9F0B0FA24
:1023B00080F040F02000400903D000E089E0306860
:1023C00000E0286899FAA9F1B1FA81F101F01F0142
:1023D00004FA01F108422CD0F868012879D128E0EC
:1023E000F868B0B394FAA4F0B0FA80F048F820404E
:1023F000FFF76AFC824607E067E100BFFFF764FC75
:10240000A0EB0A000228A2D899FAA9F0B0FA80F04D
:1024100040F02000400901D0306800E0286899FAB7
:10242000A9F1B1FA81F101F01F0104FA01F10842AA
:10243000E4D08A48001D01684FF4F85393FAA3F3DF
:102440003A69B3FA83F321F4F8519A4011430160D9
:1024500025E0FFE794FAA4F1B1FA81F148F821B040
:10246000FFF732FC824605E0FFF72EFCA0EB0A00E6
:102470000228C8D899FAA9F0B0FA80F040F02000FC
:10248000400901D0306800E0286899FAA9F1B1FA52
:1024900081F101F01F0104FA01F10842E4D138781A
:1024A0004FF4007AC0067CD56C480830006810F004
:1024B0000C0F0FD0B9694FF48070002972D090FAD8
:1024C000A0F0B0FA80F048F82040FFF7FDFB009044
:1024D0007EE087E09AFAAAF0B0FA80F040F020009F
:1024E000400901D0306800E028689AFAAAF1B1FAF0
:1024F00081F101F01F0104FA01F1084202D0B8692C
:1025000000286FD05548396A001D006800F460400B
:1025100081421AD9084601F06BFA002862D14F486F
:10252000001D01683A6A21F46041114301600168AD
:102530004FF07F4393FAA3F3FA69B3FA83F321F0E0
:102540007F419A401143016018E04448001D026831
:1025500022F460420A43026001684FF07F4393FA1D
:10256000A3F3FA69B3FA83F321F07F419A40114350
:102570000160386A01F03CFA0028CFD14FF4604185
:1025800091FAA1F1386AB1FA81F1C8404FF40041E3
:10259000401C8140314808300068F02200F0F00013
:1025A00001E070E040E092FAA2F2B2FA82F2D0408A
:1025B0002D4A105CC1402D4801600F20FFF7A8FB99
:1025C00061E000BFFFF780FB0099401A02287CD829
:1025D0009AFAAAF0B0FA80F040F02000400902D048
:1025E000306801E0BCE128689AFAAAF1B1FA81F1F9
:1025F00001F01F0104FA01F10842E3D01748001D61
:1026000001683A6A21F460411143016001684FF0AA
:102610007F4393FAA3F3FA69B3FA83F321F07F417E
:102620009A40114301602EE090FAA0F0B0FA80F0D9
:1026300048F820B0FFF748FB009005E0FFF744FBA7
:102640000099401A0228C2D89AFAAAF1B1FA81F187
:1026500041F0200149090BD031680AE000380240FE
:102660003438024000004742931701083C00002024
:1026700029689AFAAAF0B0FA80F000F01F0004FA74
:1026800000F00142DAD13878000753D5786948B3B1
:1026900094FAA4F0B0FA80F008EB8000C0F880460D
:1026A000FFF712FB009005E0FFF70EFB0099401AC0
:1026B00002288CD899FAA9F0B0FA80F040F04000D6
:1026C000B4EB501F02D1306801E08EE0286899FA1F
:1026D000A9F1B1FA81F101F01F0104FA01F21042EF
:1026E000E2D027E094FAA4F1B1FA81F108EB81017C
:1026F000C1F880B6FFF7E8FA009005E0FFF7E4FACA
:102700000099401A022870D899FAA9F0B0FA80F01E
:1027100040F04000B4EB501F01D1306800E0286861
:1027200099FAA9F1B1FA81F101F01F0104FA01F25D
:102730001042E3D1387840077BD59B484FF0000921
:102740000068C0000AD49848016841F080510160D7
:1027500000684FF0010900F0805000909348016834
:10276000C90511D4016841F480710160FFF7ACFA2A
:10277000009005E0FFF7A8FA0099401A642834D8C1
:102780008A480068C005F5D5B86801280AD008B1A4
:10279000052811D0286820F480702860286820F46B
:1027A000806002E0286840F480702860B86848B310
:1027B000FFF78AFA00900DE0286840F480602860F6
:1027C000F0E700BFFFF780FA0099411A41F2883024
:1027D00081420AD89AFAAAF0B0FA80F040F040009C
:1027E000B4EB501F02D1306801E094E028689AFAF7
:1027F000AAF1B1FA81F101F01F0104FA01F21042CD
:10280000E0D022E0FFF760FA009007E0FFF75CFA03
:102810000099411A41F2883081427CD89AFAAAF094
:10282000B0FA80F040F04000B4EB501F02D13068A5
:1028300001E012E028689AFAAAF1B1FA81F101F0F8
:102840001F0104FA01F21042E0D1B9F1000F04D0E7
:102850005548016821F080510160786AE0B3DFF8E3
:102860004891A9F11C09D9F80010C1F3810103298D
:1028700076D002284FF0807158460CD091FAA1F121
:10288000B1FA81F148F82100FFF71EFAB046074679
:102890004FF000766EE08A4691FAA1F1B1FA81F12B
:1028A000C34648F82100FFF70FFA80464FF0007644
:1028B00006E000BFFFF708FAA0EB0800022856D890
:1028C00096FAA6F0B0FA80F040F02000400904D05B
:1028D00035482438006801E062E0286896FAA6F1DD
:1028E000B1FA81F101F01F0104FA01F10842E1D1CE
:1028F000D7E90A103A6BD9F80030014323F47D037D
:102900001A431143C9F800109AFAAAF0B0FA80F0FD
:102910004BF8204000E02AE0FFF7D6F9DFF8888086
:102920000746A8F1240804E0FFF7CEF9C01B0228EF
:102930001DD896FAA6F0B0FA80F040F020004009C9
:1029400002D0D8F8000000E0286896FAA6F1B1FAA3
:1029500081F101F01F0104FA01F10842E4D01FE007
:1029600020E000BFFFF7B0F9C01B022802D9032006
:10297000BDE8F88F96FAA6F0B0FA80F040F020009B
:10298000400902D0D8F8000000E0286896FAA6F1C5
:10299000B1FA81F101F01F0104FA01F10842E1D11D
:1029A0000020E5E70120E3E7243802400070004002
:1029B00070B5040002D0607F10B106E0012070BD48
:1029C00000202077204600F041F80220607721683F
:1029D000CA204862216853204862204601F076F8F8
:1029E000FF210028206803D0416204206077E5E7DA
:1029F0008268154B1A4082602268906863681843A9
:102A0000D4E904352B43184390602268E0681061D4
:102A100020680269238942EA034202612068C26891
:102A200022F08002C2602068026C22F480220264DC
:102A30002068026CA3691A43026420684162012085
:102A40006077002070BD0000BFFF8FFF10B590B011
:102A50000C20009000200124099002900594684603
:102A6000FFF7FAFB08B1FEF731FF4FF40030CDE974
:102A70000D400DA8FFF7C6F908B1FEF727FF4FF488
:102A8000800090FAA0F00849B0FA80F001EB8000D5
:102A9000C0F8804600220F210220FFF781F90220B2
:102AA000FFF773F910B010BD000047422DE9F04761
:102AB0000446007F0B46012825D04FF0010984F819
:102AC0001C9002206077587802B300F0D1FF98780C
:102AD00000F0CEFF9878D97840EA01455878197807
:102AE000000240EA413005432168CA20486221685B
:102AF00053204862204600F0E9FF0026FF274FF0F0
:102B0000040838BB19E00220BDE8F087C10603D5F0
:102B100000F0EF000A305870D87800F0B2FF0204DD
:102B2000587800F0AEFF42EA0022987800F0A9FF42
:102B30000243187842EA4035D6E70D480540206840
:102B400045602068C16821F08001C160204600F026
:102B500085F830B12068476284F81D80267701200F
:102B6000D2E72068476284F81D9026770020CBE7E3
:102B70003FFFFF002DE9F0470446007F0D46012886
:102B800011D04FF0010A84F81CA002206077206861
:102B9000002680684FEA406042B100281ADA28789F
:102BA00000F066FF17E00220BDE8F087002800DB98
:102BB000EE70287800F065FF0204687800F061FF8D
:102BC00042EA0022A87800F05CFF0243E87842EA7B
:102BD00000470AE0EE70A878297840EA0147687853
:102BE000E978000240EA014007432168CA204862B0
:102BF000216853204862204600F068FF4FF0FF082C
:102C00004FF00409C0B914480740206807602068E5
:102C1000816821F480218160D5E90301084321689E
:102C20008A68104388602068C16821F08001C16013
:102C3000204600F013F838B12168C1F8248084F8E8
:102C40001D9026770120AFE72168C1F8248084F821
:102C50001DA026770020A7E77F7F7F0070B5044680
:102C600000688168890614D4C16821F0A001C160A0
:102C7000FFF72AF805464FF47A7606E0FFF724F8C6
:102C8000401BB04201D9032070BD2068C068800697
:102C9000F4D5002070BD10B504000ED02068016886
:102CA00021F040010160204600F04EF800206065F0
:102CB00084F8510084F8500010BD012010BD90F838
:102CC0005100704770B5040004D094F851000025FD
:102CD00010B106E0012070BD84F85050204600F08D
:102CE00035F8022084F851002068016821F0400185
:102CF0000160D4E901010843D4E9031211430843F8
:102D000061690843218B01F400710843E1690843BC
:102D1000216A0843A16A084321680860A069042168
:102D200001EA1040616A0843216848602168E06A4E
:102D300008612068C16921F40061C16165650120F5
:102D400084F85100002070BD704700002DE9F04369
:102D500000682D4987B0884252D12C4C206840F041
:102D600002002060206800F002000590206840F01A
:102D700001002060206800F001000590206840F00C
:102D80000100206020684FF0050800F00100CDE947
:102D9000048002250126032708208DE8E100DFF8E2
:102DA000709069464846FEF7A9FE02A8019580E8A2
:102DB000A001DFF860804025694640460095FEF797
:102DC0009DFE8020009069464046FEF797FE2068F1
:102DD00040F0020020602068694600F00200059083
:102DE000CDE900564846CDE90267FEF787FE201D73
:102DF000016841F480510160006800F48050059042
:102E000007B0BDE8F0830000003001401C380240EC
:102E100000040240000002402DE9F843044690F807
:102E20005100984601286ED139B332B394F850005E
:102E3000012868D0012684F85060122084F85100DF
:102E4000002565652163A286E286E564A564A56325
:102E5000A587E587A06A7703B84209D12068016891
:102E600021F4005101602068016841F400510160C3
:102E7000A068B0F5004F03D007E00120BDE8F8835B
:102E80002068016841F480410160206801684906BA
:102E900003D4016841F040010160E06800286068E7
:102EA00004D0D0B1E08E012817D020E010B1E08E20
:102EB000012808D1206B411C216321680078C8607B
:102EC000E08E401EE086E08EF0B1434600220221F3
:102ED000204601F0EDF8A0B9ECE7206B21680088EE
:102EE000C860206B801C2063E08E401EE086E08E70
:102EF00050B1434600220221204601F0D9F80028B3
:102F0000EBD00320BAE726E0A06AB84204D12068DB
:102F1000016841F4805101604346002202212046AD
:102F200001F0C6F830B9434601228021204601F065
:102F3000BFF820B1606D40F020006065E1E7A06857
:102F400018B92068C1688068009084F8516084F8DE
:102F50005050002092E7022090E72DE9F843002529
:102F6000DDF820800446ADF8005090F851000128AB
:102F700003D094F8510022287DD169B162B15BB1D0
:102F800094F85000012876D0012684F8506094F817
:102F90005100012803D005E00120BDE8F88332206C
:102FA00084F851006565A263A387E3872163A38644
:102FB000E386A564E564A06A4FF40057B84209D1DE
:102FC0002068016821F4005101602068016841F423
:102FD0000051016020680168490603D4016841F08E
:102FE00040010160E0684FF48271B0F5006F6068E5
:102FF00007D0002867D088426ED1E08E012862D0C9
:103000006AE020B188420CD1E08E012809D1206B02
:1030100021680088C860206B801C2063E08E401E01
:10302000E086E08E40BBA06AB84244D120680168C7
:1030300041F4805101603EE02068C068A16B0880C7
:10304000A06B801CA0639EE0434600220221204624
:1030500001F02EF8002874D1206B21680088C86028
:10306000206B801C2063E08E401EE086E08E50B90D
:10307000A06AB84201E0C7E017E004D12068016807
:1030800041F480510160434600220121204601F0B5
:103090000FF800286FD12068C068A16B0880A06B72
:1030A000801CA063E08F401EE087E08E0028CBD11B
:1030B000606800286AD1434600220121204600F0C2
:1030C000F7FFF0BBB8E7206B411C21632168007853
:1030D000C860E08E401EE086E08E98BBA06AB842D1
:1030E00004D12068016841F4805101604346002208
:1030F0000121204600F0DCFF18BB2068C068A16BEE
:10310000087040E0434600220221204600F0D0FF34
:10311000B8B9206B411C216321680078C860E08E3B
:10312000401EE086E08E38B9A06AB84204D120681B
:10313000016841F48051016000224346012120468C
:1031400001E018E00BE000F0B3FFA0B92068C2680E
:10315000A06B411CA1630270E08F401EE087E08EEF
:103160000028CFD1606888B943460022012120465B
:1031700000F09EFF08B103200FE72068C168A06B34
:10318000421CA2630170E08F401EE087A06AB84233
:1031900010D1434600220121204600F089FF18B1DA
:1031A000606D40F002000FE02068C068ADF80000DC
:1031B000BDF80000434601228021204600F078FF40
:1031C00020B1606D40F020006065D4E784F8516064
:1031D000A06AB84214D120688168C943C9060FD4D7
:1031E000616D41F002016165016821F400510160E7
:1031F0002068016841F40051016084F85050CBE62A
:1032000084F850500020C8E60220C6E64FF0E021C6
:103210000428086903D020F004000861704740F0DA
:103220000400FAE710B5401EB0F1807F01D3012001
:1032300010BD4FF0E02460610F21601700F0C6FB65
:103240000020A06107202061002010BD10B50400FF
:1032500003D094F8350010B107E0012010BD002024
:1032600084F83400204600F00DF8022084F8350080
:10327000211D206803F042F8012084F83500002069
:1032800010BD000008B50068B0F1804F12D10A48A7
:10329000016841F0010101600068002200F00100B6
:1032A000009011461C20FEF77BFDBDE808401C2065
:1032B000FEF76BBD08BD0000243802400168CA68F3
:1032C00042F00102CA600068016841F0010101603A
:1032D0000020704770B5044690F83400012817D0DC
:1032E000012584F83450022084F835002068826873
:1032F00022F0770222F47F4282600868502837D09B
:103300000DDC202859D005DC88B3102841D151E0CC
:10331000022070BD302853D040283AD13FE06028C9
:103320002ED070280BD0B0F5805F03D0B0F5005FD1
:103330002FD110E02068816821F0070115E0CB68EB
:10334000D1E90121206803F017F82168886840F06E
:10335000770088601DE0CB68D1E90121206803F087
:103360000BF82068816841F48041816011E01EE023
:10337000CA684968206803F06EF85021206806E0AA
:10338000CA684968206803F077F86021206802F075
:10339000FDFF84F83550002084F8340070BDCA6801
:1033A0004968206803F057F840212068EFE70021C2
:1033B0002068ECE710212068E9E720212068E6E793
:1033C00030212068E3E770B5044690F83400012806
:1033D0000DD0012584F83450022084F8350042B124
:1033E000042A0AD0082A0CD00C2A11D10DE00220A0
:1033F00070BD206802F0D2FF0AE0206802F0E4FF0E
:1034000006E0206802F0F8FF02E0206803F00BF805
:1034100084F83550002084F8340070BD10B50400E5
:1034200003D094F8350010B107E0012010BD002052
:1034300084F83400204600F00CF8022084F83500AF
:10344000211D206802F05AFF012084F83500002079
:1034500010BD704708B590F83810012913D001212C
:1034600080F8381090F83910002212290DD090F809
:10347000391022290ED090F83910322912D080F854
:103480003820012008BD022008BD01684B6943F0C7
:1034900080030EE001680B684B6800934B6943F0B2
:1034A000400306E001680B684B6800934B6943F0EA
:1034B000C0034B6180F83820002008BD10B50446D9
:1034C0000068416921F0C0014161206B08B1FEF73D
:1034D0000DFA606B08B1FEF709FA012084F8390093
:1034E000002010BD7047000038B504460068016830
:1034F000C1680168C26811F0010F02F4807204D043
:103500001AB1E16B41F00101E1630168C1F34002CE
:10351000416901F0010122B119B1E26B42F00402EC
:10352000E2630268C2F3800222B119B1E26B42F099
:103530000202E2630268C2F3C00222B119B1E16B78
:1035400041F00801E1630168C068C1F3401100F077
:10355000200019B110B1204603F004F82168086872
:10356000C968C0F3C01001F0800118B111B1204644
:1035700003F0B2F921680868CA68C0F3801002F04D
:103580004002012570B16AB1CA68204622F04002AB
:10359000CA6094F83910322911D080F8395000BF30
:1035A00000F0C8F9E06B002808D020680168406886
:1035B000009084F839502046FFF794FF38BD22214F
:1035C00080F83910ECE770B5040004D094F83900A5
:1035D000002510B106E0012070BD84F83850204667
:1035E00000F020F8022084F839002068C16821F436
:1035F0000051C160204603F009F82068016921F4F8
:10360000904101612068416921F02A0141612068EF
:10361000C16841F40051C160E563012084F83900BC
:10362000002070BDF0B53B490646DFF8E4C00768EE
:1036300000253848083902220323082487B067454B
:1036400034D1076847F400270760006800F40020C1
:103650000590086840F080700860086802AF00F0CC
:10366000807005909802CDE90002012087E81900DA
:1036700069462948FEF742FA002211463020FEF73B
:103680008FFB3020FEF781FB254C2448C4E9000560
:103690008020C4E9025025616561A5612046E5618D
:1036A000FEF790F97463666207B0F0BD0E6846F0ED
:1036B00001060E600E6806F0010605960E6846F0DB
:1036C00001060E60096801F001010591016841F4ED
:1036D000003101600068134E00F4003005900420B2
:1036E0008DE825000725CDE9033569463046FEF70C
:1036F00005FA6946304604950094FEF7FFF900226A
:1037000011462620FEF74CFB2620FEF73EFBCBE7BA
:10371000004C00402438024000080240306402405F
:10372000300600200000024070B5044690F83900D1
:10373000012801D0122832D169B362B394F838005D
:1037400001282CD0012084F83800A162A285002530
:10375000E56394F8390012281FD0222084F839003C
:10376000636B10489862636B0F48D862636B0F48B5
:10377000186308461346666B216802463046091DE9
:10378000FEF762F92068416941F04001416184F827
:103790003850002070BD012070BD3220DEE70220CD
:1037A00070BD0000256500085B6500080565000820
:1037B00090F83930012B01D0122B2CD139B332B310
:1037C00090F83830012B26D0012380F83830816200
:1037D0008285C2850021C16390F83920122A18D051
:1037E0005FF0220280F8392080F838100168CA683A
:1037F00042F48072CA6001684A6942F001024A617B
:103800000068C16841F02001C160002070470120BC
:1038100070473222E6E702207047000010B50C4ADC
:103820000168914205D18A15BDE810400949FFF7AA
:103830007BBF094881420AD1084800780AF092FF0C
:10384000BDE81040012205490548FFF7B1BF10BD92
:10385000004C004094060020004400400C0400206E
:1038600094070020704700002DE9F047044690F8C7
:10387000390099460D46012801D0222858D12DB390
:1038800022B394F83800012852D0012684F8386019
:103890000027E76394F8390022281AD05FF012005D
:1038A00084F83900A284E2844FF48058E08C4B46BF
:1038B000401EE084A0684FF0000240454FF08001B8
:1038C000204613D103F03BF808BB04E00120BDE81B
:1038D000F0873220E4E728882168C0F308004860B8
:1038E000206908B16D1C08E0AD1C06E003F027F864
:1038F00068B9216815F8010B4860E08C0028D5D123
:103900004B4600224021204603F019F808B103205D
:10391000DDE794F83900322806D084F8396000BF1A
:1039200084F838700020D2E7222084F83900F7E7C5
:103930000220CCE77047FEE70D4808B5016841F06A
:1039400001010160016801F001010091016841F08D
:1039500004010160016801F004010091016841F077
:1039600008010160006800F00800009008BD000038
:103970001C38024038B51048016841F4002101604C
:1039800000680F4C00F4002000900C4820604FF4B9
:10399000E1300025C4E901050C20E560C4E90450CC
:1039A000A5612046E561FFF70EFE0648A0624FF4D0
:1039B0008070A085E56338BD24380240004C00408B
:1039C000F0050020040B0020FEE770470907090EF0
:1039D000002806DA00F00F0000F1E02080F8141D46
:1039E000704700F1E02080F8001470477047000035
:1039F00038B51C49002309681B4A11F0F00F23D188
:103A000018491C310C68E500184C03D5216801F4F5
:103A1000C0540EE00D6845F080550D600D6805F04E
:103A20008055009524680D6804F4C05425F0805535
:103A30000D60B4F5C05F07D1B0F5404F04D11068F8
:103A4000012340F004001060106820F001001843CA
:103A50001060106800F00100984201D0012038BDCC
:103A6000002038BD08380240003C02400070004091
:103A7000010901EB810100F00F0000EB4100C0B231
:103A80007047002102E00A38C0B2491C0A28FAD265
:103A9000090740EA116070470B4810B509490160F9
:103AA000402141607F2181604FF49871C160002105
:103AB000016141618161FEF77BFF002801D0FDF7C4
:103AC00005FF10BD002800407406002070B50446B4
:103AD0000068C168490614D44FF0FF31C160FEF799
:103AE000F3F805464FF47A7607E000BFFEF7ECF8EE
:103AF000401BB04201D9032070BD2068C068400659
:103B0000F4D5002070BD000000B587B014208DF8FA
:103B1000170002208DF8150018218DF816108DF869
:103B20001400012205A90E48FEF7C0FF98B908202D
:103B30008DF8000010208DF8010000208DF80200A3
:103B40008DF8030003900490012269460448FFF7B2
:103B500011F8002801D0FDF7B9FE07B000BD000044
:103B6000740600202DE9F043044627480D4687B02F
:103B7000016841F001010160016801F00101059156
:103B8000016841F004010160016801F00401059140
:103B9000016841F0020101600068022D00F002009E
:103BA00005902ED00020194E019006F1200736F81E
:103BB0001400009057F8240006F10C080290DFF87A
:103BC000509058F82400039059F824006946FDF7F6
:103BD00095FF012D12D136F81400009057F82400FB
:103BE000029058F82400039006F13400694650F81A
:103BF0002400019059F82400FDF780FF07B0BDE8CC
:103C0000F0830120CFE700001C3802404417010870
:103C10002000002070B5084D04461E462857FEF7C8
:103C2000BFF828571EB1BDE87040FEF7AEB8BDE83A
:103C30007040FEF79FB80000401701080D4900B51D
:103C40000A6887B042F002020A60096801F00201C6
:103C50000591094931F8101000910121019102915B
:103C600003210391054951F820006946FDF746FFFD
:103C700007B000BD1C38024088170108340000203E
:103C8000FEB50024029480218DF808108DF80900FB
:103C90000422ADF8044001AD234611460320FFF78E
:103CA000B9FF1F4E002240213046FEF708F8ADF85C
:103CB000004004E0BDF80000401CADF80000BDF875
:103CC0000000FF28F6D9174C012301AA20680090B4
:103CD00002A91548FFF741F9BDF804004FF6FF713E
:103CE00001EA0020ADF80400206801AA0090012339
:103CF000511D0D48FFF731F90B4800688168C94331
:103D00008907FBD4012240213046FDF7D8FF042269
:103D1000012311460320FFF77DFF2888FEBD000028
:103D200000040240380000204404002010B50F4871
:103D3000FEF7C5FF002818D10C480D490160082185
:103D4000C16100218160416107220161C0E90A125D
:103D5000C1604FF400720162826141624FF482716E
:103D60004160BDE81040FEF7ADBF10BD4404002027
:103D7000003001402DE9FF47884607460121FF201A
:103D80008DF8081000248DF80C008DF8090004222D
:103D9000ADF8044001AE234611460320FFF73AFF79
:103DA000DFF89C90002240214846FDF788FFADF8DF
:103DB000004004E0BDF80000401CADF80000BDF874
:103DC0000000FF28F6D91F4D012301AA28680090A2
:103DD00002A91D48FFF7C1F8BDF804004FF6FF71B6
:103DE00001EA0020ADF80400286801AA0090012330
:103DF000511D1548FFF7B1F8002409E0286800902C
:103E000008EB0402012303A90F48FFF7A6F8641C7E
:103E1000BC42F3DB0C4800688168C9438907FBD4C6
:103E2000012240214846FDF74AFF042201231146A2
:103E30000320FFF7EFFE308804B0BDE8F0870000F4
:103E40000004024038000020440400202DE9FF4710
:103E50000F460024FF218DF80C10029401218DF8EB
:103E6000081090468DF809000422ADF8044001AE18
:103E7000234611460320FFF7CDFEDFF8A090002275
:103E800040214846FDF71BFFADF8004005E000BFAC
:103E9000BDF80000401CADF80000BDF80000FF2890
:103EA000F6D91F4D012301AA2868009002A91D48D8
:103EB000FFF753F8BDF804004FF6FF7101EA002048
:103EC000ADF80400286801AA00900123511D15488F
:103ED000FFF743F8002409E02868009008EB04028B
:103EE000012303A90F48FFF738F8641CBC42F3DB39
:103EF0000C4800688168C9438907FBD4012240212E
:103F00004846FDF7DCFE0422012311460320FFF79B
:103F100081FE308804B0BDE8F08700000004024054
:103F200038000020440400202DE9FE43002406460A
:103F300002948DF80840FF200F468DF809000422F6
:103F4000ADF8044001AD234611460320FFF762FEA1
:103F5000DFF88C80002240214046FDF7B0FEADF82E
:103F6000004004E0BDF80000401CADF80000BDF8C2
:103F70000000FF28F6D91B4C012301AA20680090FD
:103F800002A91948FEF7E9FFBDF804004FF6FF71DA
:103F900001EA0020ADF80400206801AA0090012386
:103FA000511D1148FEF7D9FF002403E0385D00F0F1
:103FB000CFF8641CB442F9DB0B4800688168C94340
:103FC0008907FBD4012240214046FDF778FE0422F8
:103FD000012311460320FFF71DFE2888BDE8FE835C
:103FE0000004024038000020440400202DE9FE4374
:103FF0000024029417468DF808400E468DF80900FB
:104000000422ADF8044001AD234611460320FFF71A
:1040100001FEDFF89080002240214046FDF74FFE70
:10402000ADF8004005E000BFBDF80000401CADF851
:104030000000BDF80000FF28F6D91B4C012301AA9F
:104040002068009002A91948FEF787FFBDF8040018
:104050004FF6FF7101EA0020ADF80400206801AAC4
:1040600000900123511D1148FEF777FF002403E063
:10407000385D00F06DF8641CB442F9DB0B48006851
:104080008168C9438907FBD4012240214046FDF7DE
:1040900016FE0422012311460320FFF7BBFD2888EA
:1040A000BDE8FE83000402403800002044040020E4
:1040B0002DE9F0471D4690460E460446FDF704FEE6
:1040C00007465FEA08004FF000084FF4005A4FF02F
:1040D000010926D034E0681C23D025B1FDF7F4FD9A
:1040E000C01BA8421DD92068416821F0E001416051
:1040F0002068016821F040010160A06A504509D1A3
:104100002068016821F4005101602068016841F4D1
:104110000051016084F8519084F850800320BDE87C
:10412000F0872068806836EA0000D4D10DE0681C72
:1041300006D0002DD7D0FDF7C7FDC01BA842D2D8AE
:104140002068806836EA0000F1D00020E7E7000030
:1041500001B50A4800688168C9438907FBD408484B
:104160000122694603680548FEF756FE002804D080
:104170000248FEF790FDFFF7D9FD08BD440400207A
:10418000380000207047000008B56A460121E5208C
:10419000FFF75CFE11490A7860F300020A700A78A2
:1041A000430863F347020A704A78000A60F300028A
:1041B0004A704A78430863F341024A704A78830898
:1041C00063F382024A70C208487862F3C300487001
:1041D0009DF8000000F07F0008BD000010000020E6
:1041E00038B504466A4601219E20FFF72FFE9DF850
:1041F0000000012C00F0F9018DF800100AD041F008
:10420000040000BF8DF800006A4601219E20FFF7E0
:10421000EDFE38BD41F00200F4E7000038B5054678
:104220006A4601216F20FFF711FE244C217860F3CC
:10423000000121702178420862F347012170617802
:10424000000A60F3000161706178420862F3410185
:1042500061706178820862F382016170C1086078E0
:1042600061F3C30060709DF800006A4600F08000B2
:1042700028438DF8000001216F20FFF7B7FE217859
:1042800060F3000121702178420862F34701217038
:104290006178000A60F3000161706178420862F39E
:1042A000410161706178820862F382016170C10826
:1042B000607861F3C300607038BD0000100000201A
:1042C00038B505466A4601216E20FFF7BFFD244C34
:1042D000217860F3000121702178420862F34701E0
:1042E00021706178000A60F3000161706178420812
:1042F00062F3410161706178820862F3820161704A
:10430000C108607861F3C30060709DF800006A46E0
:1043100000F0800028438DF8000001216E20FFF797
:1043200065FE217860F3000121702178420862F374
:10433000470121706178000A60F3000161706178C3
:10434000420862F3410161706178820862F3820180
:104350006170C108607861F3C300607038BD00000F
:104360001000002038B505466A4601215020FFF7AD
:104370006DFD264C217860F3000121702178420800
:1043800062F3470121706178000A60F300016170F7
:104390006178420862F3410161706178820862F3DA
:1043A00082016170C108607861F3C30060709DF89C
:1043B0000000012D27D020F0020000BF8DF8000082
:1043C0006A4601215020FFF711FE217860F30001B9
:1043D00021702178420862F3470121706178000A58
:1043E00060F3000161706178420862F3410161701D
:1043F0006178820862F382016170C108607861F3BC
:10440000C300607038BD40F00200D7E71000002004
:1044100010B5FFF735FC0F490A7860F300020A7007
:104420000A78430863F347020A704A78000A60F387
:1044300000024A704A78430863F341024A704A789E
:10444000830863F382024A70C208487862F3C300AB
:10445000487010BD1000002008B5417882781143E3
:104460008DF8001000786A460121FFF7BFFD0F4963
:104470000A7860F300020A700A78430863F347027F
:104480000A704A78000A60F300024A704A784308CA
:1044900063F341024A704A78830863F382024A70E8
:1044A000C208487862F3C300487008BD10000020BD
:1044B000F8B50F46064600256A4604219020FFF70E
:1044C000C5FC2E4C217860F3000121702178420850
:1044D00062F3470121706178000A60F300016170A6
:1044E0006178420862F3410161706178820862F389
:1044F00082016170C108607861F3C30060700020C0
:104500006946C0F103030A5CDB009A40401CC0B25C
:1045100015440428F5D377B335430020C0F10302D6
:10452000D20025FA02F20A54401CC0B20428F5D386
:104530000A4604219020FFF759FD217860F300011D
:1045400021702178420862F3470121706178000AE6
:1045500060F3000161706178420862F341016170AB
:104560006178820862F382016170C108607861F34A
:10457000C3006070F8BDFFE7B543CEE71000002030
:1045800008B56A460421FA20FFF760FC0F490A7853
:1045900060F300020A700A78430863F347020A7066
:1045A0004A78000A60F300024A704A78430863F3CD
:1045B00041024A704A78830863F382024A70C20853
:1045C000487862F3C300487008BD00001000002066
:1045D00008B50021009100B101606A4604219020D5
:1045E000FFF704FD0F490A7860F300020A700A78A9
:1045F000430863F347020A704A78000A60F3000236
:104600004A704A78430863F341024A704A78830843
:1046100063F382024A70C208487862F3C3004870AC
:1046200008BD00001000002038B504466A46042189
:10463000FA20FFF70BFC15490A7860F300020A70B4
:104640000A78430863F347020A704A78000A60F365
:1046500000024A704A78430863F341024A704A787C
:10466000830863F382024A70C208487862F3C30089
:10467000487000204FEA0D01C0F10302401C8A5C23
:10468000C0B204F8012B0428F6D338BD1000002076
:1046900008B56A460121E720FFF7D8FB11490A78DF
:1046A00060F300020A700A78430863F347020A7055
:1046B0004A78000A60F300024A704A78430863F3BC
:1046C00041024A704A78830863F382024A70C20842
:1046D000487862F3C30048709DF8000000F07F0046
:1046E00008BD0000100000202DE9F84306464A48A6
:1046F0004A493044884201D800240EE048484949DC
:104700003044884201D8012407E0474847493044F3
:10471000884201D8022400E0032400F0BFFD0746D0
:1047200000F02EFD054600F001FDF11905FB001516
:1047300000F0F4FD401C00F0FF08002C68D0012CB4
:1047400064D0022C60D0032C06D1394861E00020EF
:1047500000E00120FFF744FD284601F0D7F981462B
:1047600000F040FEFCF7B7F90D46324907464FEA24
:104770008840095D4843FCF79DF93A462B46FCF713
:1047800005F907460D463046FCF7A5F93A462B4693
:10479000FCF78AF8FCF7D9F9C0F3445242EA491110
:1047A0008DF80010410B8DF8011041098DF80210B1
:1047B00020496A46091F095D41EAC0008DF80300DF
:1047C00004210820FFF712FC1B490A7860F300025D
:1047D0000A700A78430863F347020A704A78000AAD
:1047E00060F300024A704A78430863F341024A705A
:1047F0004A78830863F382024A70C208487862F3F9
:10480000C3004870BDE8F8830C4802E00C4800E0A3
:104810000C4885429DD29AE780A9A0D160D9AC0A04
:10482000801BFEE8E0851205409F2DEE2077FC02FC
:10483000E2F49C09DE15010810000020C4E93913D8
:10484000068DA2190B1A4533024902220A704860EC
:1048500070470000000000202DE9F04F4FF00009E4
:1048600087B0C84600F0BEFD4A4988420DD900F025
:1048700055FD50B94FF0010900F0E2FC044601205B
:1048800001F0FEFA2046FFF72FFF00F0D9FC009060
:1048900025208DF80C0003AA0121A120FFF7A6FB1B
:1048A0000120FFF75FFD01F083FB3B4C20784021A6
:1048B0000325B1EB500F0BD14FF001086220FFF739
:1048C000A7FD00BF01F074FB2078B5EB500FF9D1C4
:1048D0006620FFF79DFD002613274FF00F0A00BF4B
:1048E00001F066FB2078B7EB500F04D13046761C00
:1048F000F6B205284CD02178BAEB510FF0D1FFF772
:1049000043FC83466220FFF783FD00BF01F050FBAC
:104910002078B5EB500FF9D16520FFF779FD00261F
:1049200001F046FB2078B7EB500F04D13046761CDF
:10493000F6B205282CD02178BAEB510FF0D1FFF751
:1049400023FC06466220FFF763FD00BF01F030FB49
:104950002078B5EB500FF9D1B8F1000F02D06320E9
:10496000FFF756FD0020FFF7FDFCB9F1000F05D061
:10497000002001F085FA0098FFF7B6FE5846FFF7D1
:104980009FFC3046FFF74AFC002007B0BDE8F08FDF
:104990000120FAE780C3C9011000002008B56A466B
:1049A00001213020FFF752FA12490A7860F3000221
:1049B0000A700A78430863F347020A704A78000ACB
:1049C00060F300024A704A78430863F341024A7078
:1049D0004A78830863F382024A70C208487862F317
:1049E000C30048709DF8000010F0180000D00120AE
:1049F00008BD00001000002038B50024FFF7CEFFEE
:104A000000B1012400F0CAF904446A460221C92019
:104A1000FFF71CFA13490A7860F300020A700A785B
:104A2000430863F347020A704A78000A60F3000201
:104A30004A704A78430863F341024A704A7883080F
:104A400063F382024A70C208487862F3C300487078
:104A50009DF801009DF8001000EB0120001B80B2C2
:104A600038BD000010000020F8B505466A46012157
:104A70005120FFF7EBF9824C217860F3000121709F
:104A80002178420862F3470121706178000A60F3DF
:104A9000000161706178420862F3410161706178E0
:104AA000820862F382016170C108607861F3C3001B
:104AB00060709DF800006A4620F0200040F0010080
:104AC0008DF8000001215120FFF790FA217860F362
:104AD000000121702178420862F34701217061785A
:104AE000000A60F3000161706178420862F34101DD
:104AF00061706178820862F382016170C108607838
:104B000061F3C30060706A4601214F20FFF79EF9F0
:104B1000217860F3000121702178420862F3470197
:104B200021706178000A60F30001617061784208C9
:104B300062F3410161706178820862F38201617001
:104B4000C108607861F3C30060709DF800006A4698
:104B500020F030008DF8000001214F20FFF746FAC9
:104B6000217860F3000121702178420862F3470147
:104B700021706178000A60F3000161706178420879
:104B800062F3410161706178820862F382016170B1
:104B9000C108607861F3C3006070287B002601289B
:104BA0000BD08DF8006000BF9DF80000E97A084343
:104BB0008DF80000687A20B105E008208DF800002B
:104BC000F2E701206872C0B2401E8DF8010028781B
:104BD00069780843297A08438DF80200A87A8DF88D
:104BE0000300A97B012903D140F010008DF80300D8
:104BF000687B012805D19DF8030040F001008DF885
:104C000003006A4604213020FFF7F0F90020032357
:104C100069466A78A3EB5202824201DD0E5403E03A
:104C20006A68C700FA400A54401CC0B20428F0D396
:104C3000A87A00B1012000F05BF86A460421362012
:104C4000FFF7D4F9217860F3000121702178420840
:104C500062F3470121706178000A60F3000161701E
:104C60006178420862F3410161706178820862F301
:104C700082016170C108607861F3C3006070F8BDA3
:104C80001000002038B505460024FFF787FE00B16C
:104C9000012400F083F8011968188DF80100000A5A
:104CA0008DF800006A4602213420FFF79FF90F4972
:104CB0000A7860F300020A700A78430863F3470237
:104CC0000A704A78000A60F300024A704A78430882
:104CD00063F341024A704A78830863F382024A70A0
:104CE000C208487862F3C300487038BD1000002045
:104CF00038B505466A4601214F20FFF7A7F8264C34
:104D0000217860F3000121702178420862F34701A5
:104D100021706178000A60F30001617061784208D7
:104D200062F3410161706178820862F3820161700F
:104D3000C108607861F3C30060709DF80000012D28
:104D400027D020F0010000BF8DF800006A46012145
:104D50004F20FFF74BF9217860F300012170217893
:104D6000420862F3470121706178000A60F3000194
:104D700061706178420862F3410161706178820874
:104D800062F382016170C108607861F3C3006070F2
:104D900038BD40F00100D7E71000002008B56A4692
:104DA00001213020FFF752F811490A7860F3000220
:104DB0000A700A78430863F347020A704A78000AC7
:104DC00060F300024A704A78430863F341024A7074
:104DD0004A78830863F382024A70C208487862F313
:104DE000C30048709DF8000000F0070008BD0000F7
:104DF0001000002008B56A460121C720FFF726F8F9
:104E000010490A7860F300020A700A78430863F3D5
:104E100047020A704A78000A60F300024A704A7832
:104E2000430863F341024A704A78830863F38202BD
:104E30004A70C208487862F3C30048709DF80000C9
:104E4000000908BD1000002008B56A460121C820ED
:104E5000FEF7FCFF10490A7860F300020A700A7836
:104E6000430863F347020A704A78000A60F30002BD
:104E70004A704A78430863F341024A704A788308CB
:104E800063F382024A70C208487862F3C300487034
:104E90009DF8000008BD00001000002008B540008B
:104EA000001D8DF800006A4601212220FFF79EF8C0
:104EB0000F490A7860F300020A700A78430863F326
:104EC00047020A704A78000A60F300024A704A7882
:104ED000430863F341024A704A78830863F382020D
:104EE0004A70C208487862F3C300487008BD0000E9
:104EF0001000002038B505466A4601213A20FEF729
:104F0000A5FF244C217860F300012170217842082C
:104F100062F3470121706178000A60F3000161705B
:104F20006178420862F3410161706178820862F33E
:104F300082016170C108607861F3C30060709DF800
:104F400000006A4600F03F0028438DF80000012170
:104F50003A20FFF74BF8217860F3000121702178A7
:104F6000420862F3470121706178000A60F3000192
:104F700061706178420862F3410161706178820872
:104F800062F382016170C108607861F3C3006070F0
:104F900038BD00001000002038B505466A460121E2
:104FA0003A20FEF753FF264C217860F30001217070
:104FB0002178420862F3470121706178000A60F3AA
:104FC000000161706178420862F3410161706178AB
:104FD000820862F382016170C108607861F3C300E6
:104FE00060709DF80000012D27D020F0020000BF66
:104FF0008DF800006A4601213A20FEF7F7FF21787C
:1050000060F3000121702178420862F347012170AA
:105010006178000A60F3000161706178420862F310
:10502000410161706178820862F382016170C10898
:10503000607861F3C300607038BD40F00200D7E7CC
:105040001000002038B5044600208DF800006A46A4
:1050500001211E20FEF7FAFE9DF80000012C27D04A
:1050600020F080008DF800006A4601211E20FEF726
:10507000BDFF11490A7860F300020A700A784308FC
:1050800063F347020A704A78000A60F300024A702C
:105090004A78430863F341024A704A78830863F30D
:1050A00082024A70C208487862F3C300487038BD73
:1050B00040F08000D6E700001000002008B56A46E6
:1050C00001210B20FEF7C2FE17490A7860F30002A7
:1050D0000A700A78430863F347020A704A78000AA4
:1050E00060F300024A704A78430863F341024A7051
:1050F0004A78830863F382024A70C208487862F3F0
:10510000C30048709DF8000000F00700012805D09A
:10511000032805D0042805D0032008BD002008BDC1
:10512000012008BD022008BD1000002008B56A4615
:1051300001216C20FEF78AFE10490A7860F3000214
:105140000A700A78430863F347020A704A78000A33
:1051500060F300024A704A78430863F341024A70E0
:105160004A78830863F382024A70C208487862F37F
:10517000C30048709DF8000008BD0000100000202A
:1051800008B56A4601210C20FEF760FE12490A7834
:1051900060F300020A700A78430863F347020A705A
:1051A0004A78000A60F300024A704A78430863F3C1
:1051B00041024A704A78830863F382024A70C20847
:1051C000487862F3C300487004499DF800004968BC
:1051D0004843C00B08BD000010000020080000205C
:1051E00008B56A460121B420FEF730FE13490A785B
:1051F00060F300020A700A78430863F347020A70FA
:105200004A78000A60F300024A704A78430863F360
:1052100041024A704A78830863F382024A70C208E6
:10522000487862F3C30048709DF80000C008C007CA
:1052300001D0002008BD012008BD000010000020A2
:1052400070B500F097F80446FFF738FF054600F008
:1052500065F81049401C0006495D80094843FBF78A
:1052600029FC06460C480D464068FBF734FC3246E4
:105270002B46FBF78BFB06460D462046FBF72BFC27
:1052800032462B46FBF710FB07F048FDBDE87040A7
:10529000FBF75BBCE41501080800002008B56A466E
:1052A00002210E20FEF7D2FD1A490A7860F30002AF
:1052B0000A700A78430863F347020A704A78000AC2
:1052C00060F300024A704A78430863F341024A706F
:1052D0004A78830863F382024A70C208487862F30E
:1052E000C30048709DF801009DF8001000EB0120FC
:1052F00080B2010502D540F4704001E0C0F30B001C
:10530000054900B249684843C11700EB9130801449
:1053100008BD0000100000200800002008B56A4603
:1053200001219E20FEF792FD11490A7860F30002E8
:105330000A700A78430863F347020A704A78000A41
:1053400060F300024A704A78430863F341024A70EE
:105350004A78830863F382024A70C208487862F38D
:10536000C30048709DF80000C00900D0012008BDAE
:105370001000002008B56A4604210820FEF766FDEB
:1053800017490A7860F300020A700A78430863F349
:1053900047020A704A78000A60F300024A704A78AD
:1053A000430863F341024A704A78830863F3820238
:1053B0004A70C208487862F3C30048709DF8000044
:1053C0009DF80110C006800900EB41309DF80210E5
:1053D00000EB41109DF8031000EBD10008BD000068
:1053E00010000020014840687047000008000020BD
:1053F0002DE9F04789463249324A0144914205D8A5
:1054000031490024884215D2012413E02F49304A43
:105410000144914201D802240CE02E492E4A014455
:10542000914201D8032405E02C4908442C498842C4
:1054300000D804242B4D04EB440005EBC0000126EA
:10544000D0E90270B9F5000F39460FDBFBF73BF9E5
:10545000804639462448FBF736F94146FBF7FBF80E
:105460004946FBF78BFB10D200260EE0FBF72BF929
:10547000804639461D48FBF726F94146FBF7EBF815
:105480004946FBF785FB00D2022604EB440005EBFE
:10549000C004494654F83600FBF7E3F804EBC601B4
:1054A0004968FBF786F84FF07E51884202DB1049CD
:1054B000884200DD0846FBF734FBC0B2BDE8F08748
:1054C00080A9A0D160D9AC0A00E9A435801BFEE810
:1054D000E0851205409F2DEE2077FC02C0701EF77C
:1054E00020418E01C01601080000504100002042FA
:1054F0000000B4422DE9F04F91B00446A0208DF891
:1055000034000DAA01219F20FEF770FD6068FBF7B3
:10551000CCFA0546B4F90000FBF7BEFA2946FBF7C2
:10552000A0F8C049FBF7CFF8FBF7E2FA8346632007
:10553000FEF7A6FB4027BC4D002600BF8DF800609B
:1055400005E000BF9DF80000401C8DF800009DF8AC
:105550000000FF28F6D100F02BFD2878B7EB500FA4
:10556000ECD1B24FDFF8C8927968494501D20020EA
:1055700000E0012000F020FB6220FEF781FB4FF0ED
:10558000030800BF8DF8006005E000BF9DF8000033
:10559000401C8DF800009DF80000FF28F6D100F0B7
:1055A00007FD2978B8EB510FECD17868B8463E4634
:1055B0008246FBF77AFA07465846FBF76DFA122146
:1055C000FBF7BFF83946FBF77EF8FBF791FAC0F31B
:1055D00003218DF80E108DF80F00A06841024FEAEC
:1055E0009A10B1FBF0F0401C8DF80C006068FFF7DA
:1055F0002BF907AA0121A320FEF728FC9DF81C0027
:1056000007AA20F002008DF81C000121A320FEF75C
:10561000EDFC09AA08A9206900F0ACF99DF820006A
:105620008DF83000607B9DF8241007AA08438DF8A0
:10563000310001211C20FEF709FC0BAA0AA96069B0
:1056400000F0FAF99DF81C0001AA00F008019DF88D
:105650002C0041EA00109DF8281008438DF8320014
:1056600002A9A06900F026F99DF804009DF8081031
:1056700040EA01108DF833007768380BFBF715FA14
:10568000DFF8B0B101465846FBF71DF84FF08541F1
:10569000FAF7E1FF0646FBF744FA0F90FBF705FA2D
:1056A0003146FAF7DBFF4FF07C5A50450F9800DD8A
:1056B000401CC0B24E468DF81400B74219D3780B87
:1056C000FBF7F3F901465846FAF7FDFF4FF0854125
:1056D000FAF7C1FF0746FBF724FA8146FBF7E5F925
:1056E0003946FAF7BBFF504502DD09F1010000E041
:1056F00048468DF80D0005AA01210720FEF776FC2B
:10570000297860F3000129702978420862F3470183
:1057100029706978000A60F30001697069784208AD
:1057200062F3410169706978820862F382016970ED
:10573000C108687861F3C3006870D8F80400B0420B
:105740006CD93D496BE0012000E0002000F0D2FB65
:1057500004F10C0201216C20FEF748FC03AA04218D
:105760000C20FEF743FC0CAA04211A20FEF73EFC95
:10577000297860F3000129702978420862F3470113
:1057800029706978000A60F300016970697842083D
:1057900062F3410169706978820862F3820169707D
:1057A000C108687861F3C30068700120FFF74AFC04
:1057B00080208DF80C00E3208DF80D0003AA022153
:1057C0009920FEF713FC297860F3000129702978ED
:1057D000420862F3470129706978000A60F300010A
:1057E00069706978420862F34101697069788208DA
:1057F00062F382016970C108687861F3C300687060
:1058000022208DF80C0003AA0121BC20FEF7EEFB3C
:10581000606800F00BFA11B0BDE8F08F07498842CC
:1058200093D390E700247449100000200800002062
:1058300080C3C90120D5AF4980F0FA0240787D01CC
:1058400038B504466A4601215220FEF7FFFA9DF85A
:105850000000012C28D020F0020000BF8DF80000CD
:105860006A4601215220FEF7C1FB11490A7860F314
:1058700000020A700A78430863F347020A704A7804
:10588000000A60F300024A704A78430863F3410259
:105890004A704A78830863F382024A70C2084878E3
:1058A00062F3C300487038BD40F00200D6E7000044
:1058B000100000202DE9FC4790468946044601254A
:1058C000FFF78EFC00B102256420454327480021E4
:1058D0004068B0FBF5F7264840F6282503E0491C50
:1058E00049B25A2906DA30F811207A43B2FBF5F2B0
:1058F000A242F4D861B30E4600226B4606EB020CBE
:1059000000EB4C0C3CF802CC0CFB07FCBCFBF5FCA0
:10591000A4EB0C0C23F812C0521CD2B2032AEDD314
:105920004FF6FF745FF0000233F91200002801DD2A
:10593000054600E04542A54206DA002800DC404268
:1059400084B2B018401E41B2521CD2B2032AEBD32B
:10595000092091FBF0F288F8002091FBF0F200FBA7
:10596000121089F80000BDE8FC8700000800002044
:10597000EC150108FEB50546002016460F468DF8C9
:1059800000000F24FFF72CFC02462A480123406840
:105990000DE000BFC4F1140101EB020C20FA0CF180
:1059A000A94202D88DF8003001E0641E64B29DF86F
:1059B0000010E1B1002C00DA00243470C4F11706A5
:1059C00005FA06F1521D20FA02F3B1FBF3F1CCB255
:1059D0000021D04047F6FF7C01AA6318012B09D0B3
:1059E000FF334343F340EB1A22F8113004E0002C5C
:1059F000D0DAE1E722F811C0491CC9B20329ECD37F
:105A00004FF6FF735FF0000132F91100002801DD4D
:105A1000054600E045429D4206DA002800DC40428F
:105A200083B26018401E3870491CC9B20329EBD3F9
:105A3000FEBD0000080000202DE9F05F0746304859
:105A40001446894600264068FBF72FF86FF01101D5
:105A5000FAF777FEDFF8ACA08346B0465FF00105A9
:105A600005FA08F0FBF726F800225346FAF71CFF68
:105A7000FBF76BF8FBF719F85946FAF7F2FDFBF75D
:105A800050F8874206D308F1010808F0FF08B8F182
:105A90000A0FE5D384F80080002405FA08F0FBF72C
:105AA00009F80D468246B04656462046FBF713F8E5
:105AB0000022154BFAF751FE4FF0FF32FAF7D5FFEF
:105AC00032462B46FAF7F0FEFBF73FF8FAF7EDFF08
:105AD0005946FAF7C6FDFBF724F80646B74203D34A
